:100000000C9404040C94AE130C94DF130C94101491
:100010000C9441140C9472140C94A3140C94D414E6
:100020000C9405150C9430040C9430040C9430049A
:100030000C9430040C9430040C9430040C94300470
:100040000C9430040C9430040C9430040C94300460
:100050000C9430040C9430040C9430040C94211251
:100060000C9430040C9465170C9491180C94300483
:100070000C9430040C9430040C9430040C94300430
:100080000C9430040C9430040C9430040C94300420
:100090000C949E170C94D0180C9430040C943004DB
:1000A0000C9430040C9430040C9430040C94300400
:1000B0000C9430040C9430040C9430040C943004F0
:1000C0000C9430040C9430040C9430040C94D71726
:1000D0000C940F190C9430040C9410180C944E19B5
:1000E0000C94300400002100240027002A002D0079
:1000F0003000330001010000040107010A01000083
:100100002200250028002B002E00310034000201BF
:100110000000050108010B0100002000230026005B
:1001200029002C002F00320000010000030106010D
:10013000090105050505070508080808020202026D
:100140000A0A080804040404010101010101010173
:100150000303030303030303040707070C0C0C0C3E
:100160000C0C0C0C02020202060606060606060627
:100170000B0B0B0B0B0B0B0B0102102020080810B4
:100180002040102040800201020108040201010207
:1001900004081020408080402010080402018004E0
:1001A000020180402010080402010804020101023B
:1001B0000408102040800102040810204080000044
:1001C000090A02080B0C0D070603040100000000D9
:1001D000000000000000000000000000000000001F
:1001E0000000000000000000000011100F000000DF
:1001F00000000000000000000000000000000000FF
:100200000000000000000000003E5B4F5B3E3E6BC4
:100210004F6B3E1C3E7C3E1C183C7E3C181C577DA0
:10022000571C1C5E7F5E1C00183C1800FFE7C3E7EC
:10023000FF0018241800FFE7DBE7FF30483A060EFE
:100240002629792926407F050507407F05253F5A45
:100250003CE73C5A7F3E1C1C08081C1C3E7F1422B5
:100260007F22145F5F005F5F06097F017F00668960
:10027000956A606060606094A2FFA29408047E04A6
:100280000810207E201008082A1C08081C2A0808CC
:100290001E101010100C1E0C1E0C30383E3830068C
:1002A0000E3E0E06000000000000005F0000000788
:1002B000000700147F147F14242A7F2A12231308B6
:1002C000646236495620500008070300001C224192
:1002D000000041221C002A1C7F1C2A08083E080836
:1002E00000807030000808080808000060600020E6
:1002F000100804023E5149453E00427F40007249C9
:100300004949462141494D331814127F102745456C
:1003100045393C4A49493141211109073649494982
:1003200036464949291E00001400000040340000F0
:100330000008142241141414141400412214080259
:10034000015909063E415D594E7C1211127C7F49CC
:100350004949363E414141227F4141413E7F494921
:1003600049417F090909013E414151737F0808084D
:100370007F00417F41002040413F017F081422411E
:100380007F404040407F021C027F7F0408107F3E78
:100390004141413E7F090909063E4151215E7F09E5
:1003A000192946264949493203017F01033F40404C
:1003B000403F1F2040201F3F4038403F6314081437
:1003C0006303047804036159494D43007F4141416F
:1003D0000204081020004141417F04020102044050
:1003E00040404040000307080020545478407F28D4
:1003F0004444383844444428384444287F385454CA
:10040000541800087E090218A4A49C787F080404EC
:100410007800447D40002040403D007F102844008B
:1004200000417F40007C047804787C08040478381C
:1004300044444438FC1824241818242418FC7C084C
:10044000040408485454542404043F44243C4040C9
:10045000207C1C2040201C3C4030403C442810287C
:10046000444C9090907C4464544C440008364100C5
:100470000000770000004136080002010204023C3F
:100480002623263C1EA1A161123A4040207A38540E
:100490005455592155557941215454784121555489
:1004A000784020545579400C1E52721239555555DA
:1004B00059395454545939555454580000457C41C5
:1004C0000002457D420001457C40F0292429F0F0DE
:1004D000282528F07C545545002054547C547C0A2F
:1004E000097F4932494949323248484832324A48FC
:1004F00048303A4141217A3A42402078009DA0A0FC
:100500007D39444444393D4040403D3C24FF24244F
:10051000487E4943662B2FFC2F2BFF0929F620C06C
:10052000887E090320545479410000447D413048BD
:10053000484A32384040227A007A0A0A727D0D1900
:10054000317D2629292F28262929292630484D4062
:1005500020380808080808080808382F10C8ACBA5E
:100560002F102834FA00007B000008142A142222DD
:10057000142A1408AA005500AAAA55AA55AA0000D0
:1005800000FF00101010FF00141414FF001010FFE3
:1005900000FF1010F010F0141414FC001414F700F5
:1005A000FF0000FF00FF1414F404FC141417101FC4
:1005B00010101F101F1414141F00101010F0000052
:1005C00000001F101010101F10101010F01000006D
:1005D00000FF101010101010101010FF100000007D
:1005E000FF140000FF00FF00001F10170000FC04B4
:1005F000F414141710171414F404F40000FF00F797
:1006000014141414141414F700F7141414171410F9
:10061000101F101F141414F4141010F010F0000028
:100620001F101F0000001F14000000FC140000F049
:1006300010F01010FF10FF141414FF141010101FEE
:1006400000000000F010FFFFFFFFFFF0F0F0F0F0FF
:10065000FFFFFF0000000000FFFF0F0F0F0F0F381C
:10066000444438447C2A2A3E147E02020606027E56
:10067000027E0263554941633844443C04407E2075
:100680001E2006027E020299A5E7A5991C2A492A86
:100690001C4C7201724C304A4D4D30304878483015
:1006A000BC625A463D3E494949007E0101017E2A0D
:1006B0002A2A2A2A44445F444440514A4440404440
:1006C0004A51400000FF0103E080FF000008086B72
:1006D0006B083612362436060F090F06000018186C
:1006E0000000001010003040FF0101001F01011E3A
:1006F00000191D1712003C3C3C3C00000000000F9C
:100700000180961180FFB103012C2DB203012C2D25
:10071000B306012C2D012C2DB40107C003A20284C5
:10072000C101C5C2020A00C3028A2AC4028AEEC5F8
:10073000010E20003601C83A0105022A0400020019
:10074000812B04000100A0022A040000007F2B047A
:100750000000009F04E010021C07123732292D29E7
:10076000252B3900010310E110031D07062E2C294B
:100770002D2E2E373F0000021013800A29806412AC
:100780000180321180FF3A81050AB1830006030A15
:10079000360108B6021502B40100C08202700AC117
:1007A0000105C2020102C5823C380AFC021115E0B3
:1007B0001009160920211B131917151E2B040502F9
:1007C0000EE1900B14081E221D181E1B1A242B0666
:1007D00006020F0A2A04000200812B040002008195
:1007E00013800A2980FF7C3C3E5E2B3D3F2F5B5DE2
:1007F0003B2C2A225C006364696E6F7073757858B5
:100800005B003204B81A762311241FBECFEFD1E269
:10081000DEBFCDBF00E00CBF17E0A0E0B2E0EAE52C
:10082000F1E800E00BBF02C007900D92A23EB107B5
:10083000D9F71DE0A2EEB7E001C01D92AD34B107BB
:10084000E1F718E0C8E0D8E004C02297FE010E945A
:10085000A740C230D107C9F70E9455170C948339BD
:100860000C94000083EE97E066E047E028E00E94E9
:100870005C1F10921A0810921B0810921C0810920C
:100880001D0810921E0810921F0810922008109246
:100890002108109222081092230810922408109226
:1008A0002508109226081092270810922808109206
:1008B00029080E94691260932D0870932E08809376
:1008C0002F089093300808959091E207809198073F
:1008D000981711F40E947A0C08959091E207809184
:1008E0009807981711F40E946E0C0895EF92FF92EA
:1008F0000F931F93CF93DF93EC017B0180E00E9465
:100900004C162091F3063091F4068C01021B130B58
:1009100081E00E944C162091F5063091F606821B6C
:10092000930B9C01C8010496099710F400E010E0B5
:10093000C9010496099710F420E030E0C80160E88E
:1009400070E00E94554079836883C90160E870E0D7
:100950000E945540F701718360830E9469127B01F8
:100960008C0180912D0890912E08A0912F08B091B4
:100970003008E816F9060A071B0740F4E0922D0834
:10098000F0922E0800932F08109330088091F706FC
:100990009091F806A091F906B091FA0620912D08E1
:1009A00030912E0840912F0850913008820F931FEC
:1009B000A41FB51F8E159F05A007B10710F080E09A
:1009C00019C0E0922D08F0922E0800932F08109382
:1009D000300884E00E941C1620E0892B09F421E0F5
:1009E00080912C08882321F080E0222309F481E003
:1009F00020932C08DF91CF911F910F91FF90EF90E2
:100A0000089584E060E00E94361584E061E00E9471
:100A1000E91581E00E944C169093F4068093F3064A
:100A200080E00E944C169093F6068093F506089598
:100A300087EF9AE065E00E94DA25882329F50F9276
:100A40000F9280E092E0EDB7FEB7928381830E941F
:100A5000F70B88E192E0EDB7FEB7928381830E94A5
:100A6000F70B8CE292E0EDB7FEB7928381830E9490
:100A7000F70B84E492E0EDB7FEB7928381830E9486
:100A8000F70B0F900F90FFCF0F920F928DE792E030
:100A9000EDB7FEB7928381830E94F70B0F900F9002
:100AA00008950F931F9303EE17E0C80161E00E94C1
:100AB0005323C80160E00E940622C80160E070E094
:100AC00040E050E00E944A1FC80160E070E00E94D0
:100AD000561FC80161E00E94501FC8016FE170E01D
:100AE0000E9440201F910F910895EF92FF920F9363
:100AF0001F93CF93DF93EC0180912A0890912B08EC
:100B00008C179D0789F1D0932B08C0932A0883EE98
:100B100097E060E070E044E950E020E830E00CE06D
:100B200010E0E0EEEE2EE7E0FE2E0E948E2183EE36
:100B300097E061E00E94501F83EE97E06FE178EF4D
:100B40000E94561F83EE97E060E070E046E950E0B7
:100B50000E944A1F83EE97E061E00E94501F83EEDF
:100B600097E0BE010E944217DF91CF911F910F9134
:100B7000FF90EF9008958CE892E00E94750508952B
:100B80002F923F924F925F926F927F928F929F929D
:100B9000AF92BF92CF92DF92EF92FF920F931F938B
:100BA000DF93CF93CDB7DEB72D970FB6F894DEBFA6
:100BB0000FBECDBF8DB79EB74091490D50914A0DE4
:100BC0004115510511F09A0104C02091ED063091B4
:100BD000EE066091F1067091F206821B930B861768
:100BE000970730F52DB73EB74115510521F44091D7
:100BF000ED065091EE0600D000D0EDB7FEB731966D
:100C00008DE892E0ADB7BEB712969C938E93119784
:100C1000241B350B33832283758364830E94F70B77
:100C2000EDB7FEB736960FB6F894FEBF0FBEEDBF18
:100C300080910F08882311F4662404C010920F08D5
:100C4000662463941A8219821C821B82F894909104
:100C500098078091E2071D86981711F0F1E0FD8753
:100C600078942D85222309F49DC04DB75EB7485076
:100C700050400FB6F8945EBF0FBE4DBFEDB7FEB744
:100C800031968EE992E0ADB7BEB712969C938E93E3
:100C90001197809131088283138280913608909158
:100CA0003708958384838091380890913908978319
:100CB00086830E94F70B3091310880919807EDB739
:100CC000FEB738960FB6F894FEBF0FBEEDBF3817CB
:100CD000E9F02091980700D000D0EDB7FEB731962B
:100CE0008AEB92E0ADB7BEB712969C938E931197A4
:100CF00032831382248315820E94F70BEDB7FEB76F
:100D000036960FB6F894FEBF0FBEEDBF0E944F0E91
:100D100040919E0750919F075695479580913608C0
:100D2000909137082091A0073091A107369527951B
:100D30006091380870913908621B730B841B950B06
:100D40000E94A20C2DB73EB7285030400FB6F89441
:100D50003EBF0FBE2DBFEDB7FEB7319681ED92E0DD
:100D6000ADB7BEB712969C938E93119780913108C0
:100D7000828313828091360890913708958384830B
:100D80008091380890913908978386830E94F70BE9
:100D900066246394EDB7FEB738960FB6F894FEBF9D
:100DA0000FBEEDBFCE010196BE016D5F7F4F0E9469
:100DB0007604D82E89819A81892B29F48B819C8194
:100DC000892B09F457C0E0903208F0903308009165
:100DD000340810913508CE010596BE01695F7F4F3A
:100DE0000E94860C882309F445C08D819E818A303B
:100DF000910548F4E0903208F090330820EE3FEF80
:100E0000E20EF31E0DC08637910510F420E009C0F4
:100E1000E0903208F090330840E250E0E40EF51E16
:100E200021E08F8198858A30910538F4009134084B
:100E300010913508005210400CC08637910538F0EB
:100E40000091340810913508005E1F4F02C0222324
:100E500039F0C701B8010E94A20C662463940AC04D
:100E60000E94D50C6B817C8189819A810E94570FE9
:100E70000E94410DDD2009F425C28DB79EB70A9767
:100E80000FB6F8949EBF0FBE8DBFEDB7FEB731967B
:100E90008BEE92E0ADB7BEB712969C938E931197EE
:100EA00080913E0890913F08A0914008B091410880
:100EB00082839383A483B58380913A0890913B0801
:100EC000A0913C08B0913D0886839783A087B187A5
:100ED0000E94F70BA0903A08B0903B08C0903C08E5
:100EE000D0903D08E0903E08F0903F080091400807
:100EF00010914108EDB7FEB73A960FB6F894FEBFD1
:100F00000FBEEDBF8091180890911908892BE9F563
:100F10002DB73EB72A5030400FB6F8943EBF0FBEF3
:100F20002DBFEDB7FEB731968AE093E0ADB7BEB7FF
:100F300012969C938E931197A282B382C482D5821B
:100F4000E682F782008711870E94F70BE0921E0865
:100F5000F0921F080093200810932108A0921A080D
:100F6000B0921B08C0921C08D0921D0881E090E04E
:100F70009093190880931808EDB7FEB73A960FB60C
:100F8000F894FEBF0FBEEDBF9DC12DB73EB72A50EE
:100F900030400FB6F8943EBF0FBE2DBFEDB7FEB781
:100FA000319686E293E0ADB7BEB712969C938E93CE
:100FB0001197A282B382C482D582E682F78200872B
:100FC00011870E94F70BE0922608F0922708009301
:100FD000280810932908A0922208B0922308C092F2
:100FE0002408D09225081092190810921808EDB71D
:100FF000FEB73A960FB6F894FEBF0FBEEDBF8091D4
:10100000160890911708892B61F10F920F9280E4D6
:1010100093E0ADB7BEB712969C938E9311970E9442
:10102000F70B40E050E020E030E00F900F9012C04E
:10103000E0911408F0911508E20FF31F1482158255
:101040001682178210821182128213824F5F5F4FC5
:10105000285F3F4F80911208909113084817590755
:1010600038F30F920F9286E593E0EDB7FEB79283C7
:1010700081830E94F70B0F900F9020911A083091F6
:101080001B0840911C0850911D0860911E0870912A
:101090001F088091200890912108A0902208B0900C
:1010A0002308C0902408D0902508E0902608F090EE
:1010B000270800912808109129080E94F610F82EA0
:1010C000E92E082F192F00D00F9287E693E0ADB7D5
:1010D000BEB712969C938E93119714961C930E9301
:1010E00013970E94F70BC80101970F900F900F9074
:1010F0000F908E5F9F4F40F1012B29F40F920F92BA
:101100008BE793E018C00F920F9280EA93E0ADB79F
:10111000BEB712969C938E9311970E94F70B0F9077
:101120000F908BE79AE06BED73E00E9442170F92ED
:101130000F928DED93E0EDB7FEB7928381830E940D
:10114000F70B0F900F90BEC00115110509F4BAC03E
:1011500080911008909111088017910728F49093BE
:1011600013088093120804C0109313080093120808
:101170004091100850911108809114089091150821
:101180006F2D7E2D0E94AA0F97FD61C00F920F92C6
:1011900085EF93E0ADB7BEB712969C938E931197EF
:1011A0000E94F70B00E010E0EE24FF240F900F9058
:1011B000FBE0CF2EF4E0DF2E3BC0209114083091ED
:1011C00015082E0D3F1DEDB7FEB73C970FB6F894EE
:1011D000FEBF0FBEEDBF3196ADB7BEB71296DC9223
:1011E000CE92119713830283D90114964D915D918C
:1011F0006D917C91179744835583668377832D91F6
:101200003D914D915C9120873187428753870E94A1
:10121000F70B0F5F1F4FE8E0F0E0EE0EFF1E2DB75B
:101220003EB7245F3F4F0FB6F8943EBF0FBE2DBFB1
:1012300080911208909113080817190708F4BDCF80
:1012400081E090E090931708809316083EC03FEF2E
:101250008F3F9307E9F40F920F9287E194E0ADB7C7
:10126000BEB712969C938E9311970E94F70B8DED4B
:1012700093E0EDB7FEB7928381830E94F70B0F9046
:101280000F908BE79AE06BED73E00E9442171DC050
:101290008E5F9F4FD1F40F920F9285E694E0ADB729
:1012A000BEB712969C938E9311970E94F70B85E917
:1012B00094E0EDB7FEB7928381830E94F70B0F9005
:1012C0000F9003C0662009F43EC12DB73EB72C50E5
:1012D00030400FB6F8943EBF0FBE2DBFEDB7FEB73E
:1012E00031968DEA94E0ADB7BEB712969C938E937B
:1012F0001197809131088283138280913A089091EE
:101300003B08A0913C08B0913D0884839583A68357
:10131000B78380913E0890913F08A0914008B0911A
:10132000410880879187A287B3870E94F70BEDB7AA
:10133000FEB73C960FB6F894FEBF0FBEEDBF4091CE
:101340003A0850913B0860913C0870913D088091AB
:1013500031080E94B00D00D000D022ED34E0ADB7CE
:10136000BEB712963C932E931197EDB7FEB76383E9
:101370007483858396830E94F70B2DB73EB72A5F4F
:101380003F4F0FB6F8943EBF0FBE2DBF40913E08B1
:1013900050913F0860914008709141088091310858
:1013A0000E94620D00D000D025EE34E0ADB7BEB78C
:1013B00012963C932E931197EDB7FEB76383748317
:1013C000858396830E94F70B2DB73EB72A5F3F4F68
:1013D0000FB6F8943EBF0FBE2DBF0E94120D0E94A3
:1013E000410D8091120890911308029708F490C063
:1013F0000F920F9287EF94E0ADB7BEB712969C9311
:101400008E9311970E94F70B1C861B861A861986ED
:101410000F900F9072C0E0911408F0911508298583
:101420003A85E20FF31F408151816281738180917F
:1014300031080E94B00D1B012C018091320890915F
:101440003308281A390AE0911408F09115084985E3
:101450005A85E40FF51F448155816681778180911B
:1014600031080E94620D3B014C018091340890913B
:101470003508681A790A89859A8508969A8789872E
:10148000E0911408F0911508E80FF91F408151818F
:1014900062817381809131080E94B00D5B016C0103
:1014A0008091320890913308A81AB90AE091140883
:1014B000F0911508A985BA85EA0FFB1F4481558173
:1014C00066817781809131080E94620D7B018C01D9
:1014D0008091340890913508E81AF90A83EE97E074
:1014E000B101A30195018701EE24FF240E94061D8E
:1014F000EB85FC853196FC87EB87809112089091F3
:10150000130801972B853C852817390708F483CFEA
:101510000E94BB053D853323B1F0F89480913108DA
:10152000809398078093E20778940F920F9281E15D
:1015300095E0ADB7BEB712969C938E9311970E941B
:10154000F70B0F900F908091180890911908892B34
:1015500019F481E295E002C087E295E00E947505EA
:101560002D960FB6F894DEBF0FBECDBFCF91DF91A1
:101570001F910F91FF90EF90DF90CF90BF90AF90B1
:101580009F908F907F906F905F904F903F902F90A3
:101590000895CF92DF92EF92FF920F931F93CF9314
:1015A000DF938BE79AE040E855E260E070E00E944C
:1015B0008D198BE79AE06BE275E00E9442178BE78A
:1015C0009AE00E946D1A0E9451050E9418050E941F
:1015D00001050E94490CC0903108CC2DD0E074E088
:1015E000CC0FDD1F7A95E1F768E3C62E67E0D62EB3
:1015F000CC0EDD1EFE01E45CF84FD6011C966D9109
:101600007D918D919C911F972081318142815381E1
:10161000620F731F841F951F22E030E040E050E00E
:101620000E948A4079018A01C05CD84F6881798123
:101630008A819B81F6012081318142815381620F31
:10164000731F841F951F22E030E040E050E00E94AD
:101650008A40C801B7010E94F40D80919E079091C5
:101660009F07969587954091320850913308609175
:10167000A0077091A1077695679520913408309165
:101680003508620F731F840F951F0E94070F81E0BA
:1016900080930F0882E060E00E94361582E061E0EE
:1016A0000E94E91583E060E00E94361583E061E066
:1016B0000E94E91581E06DE674E042E050E00E948E
:1016C000321380E064E674E042E050E00E9432139E
:1016D00068EE73E080E090E00E94771284E690E08C
:1016E00090931108809310088DB79EB72091490DF3
:1016F00030914A0D2115310511F0A90104C0409126
:10170000ED065091EE066091F1067091F206841B91
:10171000950B861B970B80529340B0F48DB79EB704
:101720002115310521F42091ED063091EE06821B42
:10173000930B861B970B03E0969587950A95E1F727
:1017400090931108809310088091100890911108CF
:1017500013E0880F991F1A95E1F70E944E38809385
:1017600014089093150800D00F9287E395E0ADB769
:10177000BEB712969C938E9311978091100890910A
:10178000110814969C938E9313970E94F70B109256
:101790001308109212084DB75EB72091490D309191
:1017A0004A0D0F900F900F900F902115310521F4E5
:1017B0002091ED063091EE0600D00F9288E495E07E
:1017C000EDB7FEB792838183421B530B548343834F
:1017D0000E94F70B0F900F900F900F90DF91CF9119
:1017E0001F910F91FF90EF90DF90CF900895CF92CF
:1017F000DF92EF92FF920F931F93DF93CF93CDB7BA
:10180000DEB7EDB6FEB6CEB68091FB06882359F161
:101810008DB79EB7805091400FB6F8949EBF0FBE13
:101820008DBF0DB71EB70F5F1F4FFE013E96C8015B
:1018300060E071E04C855D859F010E94093A8BE76D
:101840009AE064E575E00E943F178BE79AE0B801E3
:101850000E9442172E2D3C2DC9010FB6F8949EBF51
:101860000FBE8DBF08C08DB79EB79C010FB6F89410
:101870003EBF0FBE2DBF0FB6F894FEBE0FBEEDBE2D
:10188000CF91DF911F910F91FF90EF90DF90CF905C
:10189000089510923A0810923B0810923C0810925A
:1018A0003D0810923E0810923F0810924008109296
:1018B0004108109237081092360810923908109299
:1018C000380810923308109232081092350810929E
:1018D0003408809198078093310808958091980783
:1018E000853028F4809198078F5F809398078091C6
:1018F0009807089580919807882329F08091980788
:10190000815080939807809198070895FC01DB012E
:101910008091360890913708209132083091330831
:10192000821B930B918380838091380890913908B2
:101930002091340830913508821B930B8D939C9332
:1019400081E0089597FF03C0E0E0F0E010C0E0916F
:101950003108F0E0EE0FFF1FE450F94F0190F081E5
:10196000E02DE058F0408E179F0708F4FC01F0933B
:101970003308E093320877FF03C060E070E010C0E6
:10198000E0913108F0E0EE0FFF1FE85FF84F0190A3
:10199000F081E02DE05AF040E617F70708F4BF01A8
:1019A00070933508609334080895AF92BF92CF9238
:1019B000DF92EF92FF920F931F9340913608509160
:1019C0003708425050402091380830913908225051
:1019D00030408091310866E0869FC00111246091FB
:1019E0003208709133088A01061B170B6091340886
:1019F000709135087901E61AF70A8C5E984F63EE0C
:101A000077E0F5E0CF2ED12CE5E0AE2EB12C0E9490
:101A100000371F910F91FF90EF90DF90CF90BF9014
:101A2000AF900895AF92BF92CF92DF92EF92FF9264
:101A30000F931F938091310826E0829FC0011124EB
:101A40004091320850913308209134083091350884
:101A50008C5E984F63EE77E000E010E0EE24FF2408
:101A6000B0E8CB2ED12CA0EAAA2EB12C0E940037D0
:101A70001F910F91FF90EF90DF90CF90BF90AF90AC
:101A800008950F931F9360913608709137088091E5
:101A9000320890913308681B790B409138085091B7
:101AA00039088091340890913508481B590B83EE12
:101AB00097E022E030E000E018EF0E94D21C1F9176
:101AC0000F910895AF92BF92CF92DF92EF92FF9263
:101AD0000F931F935A016B01A82FBB27A7FDB09549
:101AE00000D00F9268E377E0FD0184E0EE0FFF1F66
:101AF0008A95E1F7E60FF71F2081318142815381FA
:101B0000AA0FBB1FCD01019613E0880F991F1A95EC
:101B1000E1F7680F791FFB01E080F18002811381FA
:101B2000A85FB84F8D919C91A0E0B0E0EDB7FEB7F3
:101B300081839283A383B483C601B501AA24BB2405
:101B400065010E9480160F900F900F900F901F91CB
:101B50000F91FF90EF90DF90CF90BF90AF900895DE
:101B6000AF92BF92CF92DF92EF92FF920F931F93AB
:101B70005A016B01A82FBB27A7FDB09500D00F928B
:101B8000FD0104E0EE0FFF1F0A95E1F788E397E0FF
:101B9000E80FF91F2481358146815781E484F5845B
:101BA00006851785AA0FBB1FA450B94F8D919C9134
:101BB000A0E0B0E0EDB7FEB781839283A383B48346
:101BC000C601B501AA24BB2465010E9480160F90AE
:101BD0000F900F900F901F910F91FF90EF90DF905B
:101BE000CF90BF90AF900895AF92BF92CF92DF9207
:101BF000EF92FF920F931F937B018C0159016A01B1
:101C000080913108B801A7010E94B00D709333088C
:101C10006093320880913108B601A5010E94620DDF
:101C2000209132083091330837FF03C0E0E0F0E044
:101C300010C0E0913108F0E0EE0FFF1FE450F94FC3
:101C40000190F081E02DE058F0402E173F0708F496
:101C5000F901F0933308E093320877FF03C060E0A6
:101C600070E010C0E0913108F0E0EE0FFF1FE85F78
:101C7000F84F0190F081E02DE05AF040E617F707A9
:101C800008F4BF0170933508609334081F910F91D9
:101C9000FF90EF90DF90CF90BF90AF90089580912C
:101CA00098078093310840913A0850913B08609121
:101CB0003C0870913D080E94B00D70933708609306
:101CC000360840913E0850913F086091400870915D
:101CD0004108809131080E94620D70933908609329
:101CE0003808809131080895AF92BF92CF92DF9269
:101CF000EF92FF920F931F93A82FBB27A7FDB095DC
:101D000000D00F92CD01880F991FFC01E85FF84FBA
:101D1000E080F18000E010E0E8E3F7E034E0AA0FB3
:101D2000BB1F3A95E1F7AE0FBF1FAD90BD90CD90B0
:101D3000DC90019623E0880F991F2A95E1F7E80FC0
:101D4000F91F80819181A281B381EDB7FEB78183B4
:101D50009283A383B483CB01BA0120E030E040E05A
:101D600050E00E9480160F900F900F900F901F91DF
:101D70000F91FF90EF90DF90CF90BF90AF900895BC
:101D8000AF92BF92CF92DF92EF92FF920F931F9389
:101D9000992787FD909500D00F92FC01EE0FFF1F51
:101DA000E450F94FE080F18000E010E0B4E0880FEB
:101DB000991FBA95E1F7E8E3F7E0DF01A80FB91F33
:101DC0001496AD90BD90CD90DC901797E80FF91F59
:101DD00084859585A685B785EDB7FEB78183928307
:101DE000A383B483CB01BA0120E030E040E050E0AF
:101DF0000E9480160F900F900F900F901F910F91DF
:101E0000FF90EF90DF90CF90BF90AF90089597FF35
:101E100003C080E090E00EC0E0913108F0E0EE0FEA
:101E2000FF1FE450F94F0190F081E02DE817F9070A
:101E300008F4CF01909337088093360877FF03C0EA
:101E400060E070E00EC0E0913108F0E0EE0FFF1F9F
:101E5000E85FF84F0190F081E02DE617F70708F4EE
:101E6000BF017093390860933808AC0160E070E0FE
:101E7000809131080E94C00E60933A0870933B082D
:101E800080933C0890933D08409138085091390860
:101E900060E070E0809131080E94740E60933E080B
:101EA00070933F08809340089093410808954091B3
:101EB0003608509137082091380830913908260F9C
:101EC000371F840F951FB9010E94070F0895CF9205
:101ED000DF92EF92FF920F931F93CF93DF938C01CA
:101EE0007B010E9469126B01C0E0D0E00894E10818
:101EF000F1081FC00E9469126C197D09655F71406D
:101F00001CF0C0E0D0E01CC08BE79AE00E94131ADE
:101F1000892B81F38BE79AE00E94441AF801EC0FB9
:101F2000FD1F80838D3041F08A3031F0882321F00D
:101F30002196CE15DF0540F30C0F1D1FF80110820E
:101F4000CE01DF91CF911F910F91FF90EF90DF9025
:101F5000CF9008952F923F924F925F926F927F920F
:101F60008F929F92AF92BF92CF92DF92EF92FF92A9
:101F70000F931F93DF93CF93CDB7DEB72A970FB69A
:101F8000F894DEBF0FBECDBF182F092F4B013A01C9
:101F90002DB73EB73A87298700D000D0EDB7FEB7FE
:101FA00031968FEB95E0ADB7BEB712969C938E93AA
:101FB000119773836283558344830E94F70BEDB7B7
:101FC000FEB736960FB6F894FEBF0FBEEDBF1814DD
:101FD000190414F477FE1EC000D000D0EDB7FEB790
:101FE00031968AEE95E0ADB7BEB712969C938E936C
:101FF000119793828282758264820E94F70B2FEF81
:102000003FEFEDB7FEB736960FB6F894FEBF0FBEA2
:10201000EDBFBAC08BE79AE062E076E00E9442171B
:102020002DB73EB7205230400FB6F8943EBF0FBEDA
:102030002DBFADB6BEB60894A11CB11C2501812FE1
:10204000902F9C01790100E010E08FE0282E86E0BF
:10205000382E0E9469126B01C20160E270E00E949A
:10206000670FD5018C91873541F00E9469126C1978
:102070007D09685E734084F3A8C00F920F92EDB79C
:10208000FEB7418252820E94F70B00D000D0EDB71C
:10209000FEB73196ADB7BEB711964C92518224E08F
:1020A00036E03383228381E090E08C0F9D1F95837F
:1020B0008483A5E0B0E0AC0FBD1FB783A6830E9468
:1020C000E6390F920F92EDB7FEB73196ADB7BEB7B6
:1020D00012963C922E92119789819A81AB81BC8194
:1020E00082839383A483B5838D819E81AF81B885DC
:1020F00086839783A087B1870E94F70BEDB7FEB761
:102100003A960FB6F894FEBF0FBEEDBF0615170541
:102110009CF42D813E814F81588589819A81AB81C4
:10212000BC81F70184839583A683B783D7012D9360
:102130003D934D935C9313978BE79AE062E076E0D2
:102140000E9442170F5F1F4FE8E0F0E0EE0EFF1E07
:10215000081519050CF47DCF0E9469128B01C2018C
:1021600060E270E00E94670FD5018C91853419F40C
:1021700020E030E009C00E946912601B710B685EAC
:1021800073406CF32EEF3FEFC901E985FA850FB676
:10219000F894FEBF0FBEEDBF2A960FB6F894DEBFCF
:1021A0000FBECDBFCF91DF911F910F91FF90EF90A8
:1021B000DF90CF90BF90AF909F908F907F906F9067
:1021C0005F904F903F902F9008950F920F928DE166
:1021D00096E0ADB7BEB712969C938E9311970E946E
:1021E000F70B2FEF3FEF0F900F90CECF2F923F9234
:1021F0004F925F926F927F928F929F92AF92BF9217
:10220000CF92DF92EF92FF920F931F93DF93CF93C2
:10221000CDB7DEB7CA57D0400FB6F894DEBF0FBEB9
:10222000CDBFDE01A959BF4F2C9311963C93119756
:1022300012964C93129713965C93139714966C9383
:10224000149715967C93159716968C931697179658
:102250009C931797FE01E159FF4FA082B182C28281
:10226000D382E482F582068317832DB73EB7EB96BF
:102270003FAF2EAFEB971496ED90FD900D911C9112
:102280001797AD90BD90CD90DC906480758086806E
:10229000978020803180428053808DB79EB7809791
:1022A0000FB6F8949EBF0FBE8DBFADB7BEB71196E7
:1022B000E996BFAFAEAFE9971A821982EDB7FEB7C4
:1022C00072970FB6F894FEBF0FBEEDBF31968BE646
:1022D00096E0ADB7BEB712969C938E931197E282AB
:1022E000F38204831583A682B782C086D186628674
:1022F00073868486958626863786408A518A0E9410
:10230000F70B0F920F92EDB7FEB7319623E030E056
:102310002C0F3D1FADB7BEB712963C932E9311976D
:1023200089E996E093838283E482F58206831783AA
:10233000A086B186C286D386648675868686978691
:10234000208A318A428A538A0E94B5398DB79EB756
:1023500044960FB6F8949EBF0FBE8DBF8BE79AE0F0
:10236000BE016D5F7F4F0E9442170E9469128B0170
:10237000E896FFACE897E996EFACE9978F2D9E2D94
:1023800060E270E00E94670FE996AEADBFADE997DD
:102390008C918E3451F00E946912601B710B615157
:1023A000774264F32FEF3FEF28C000D000D0EDB7A5
:1023B000FEB73196ADB7BEB71196FC92E1828BEABB
:1023C00096E093838283CE010196958384830E9455
:1023D000E6390F900F9081EB96E0EDB7FEB7928350
:1023E000818389819A81948383830E94F70B298159
:1023F0003A810F900F900F900F90C901EB962EAD80
:102400003FADEB970FB6F8943EBF0FBE2DBFC65839
:10241000DF4F0FB6F894DEBF0FBECDBFCF91DF9177
:102420001F910F91FF90EF90DF90CF90BF90AF90F2
:102430009F908F907F906F905F904F903F902F90E4
:1024400008951F920F920FB60F9211242F933F936E
:102450008F939F93AF93BF938091460890914708C5
:10246000A0914808B091490830914A080196A11DF1
:10247000B11D232F2D5F2D3720F02D570196A11D63
:10248000B11D20934A088093460890934708A09373
:102490004808B09349088091420890914308A09160
:1024A0004408B09145080196A11DB11D80934208D2
:1024B00090934308A0934408B0934508BF91AF910F
:1024C0009F918F913F912F910F900FBE0F901F9072
:1024D00018958FB7F894209146083091470840919D
:1024E0004808509149088FBFB901CA0108959B015E
:1024F000AC017FB7F8948091420890914308A09175
:102500004408B091450866B5A89B05C06F3F19F017
:102510000196A11DB11D7FBFBA2FA92F982F882723
:10252000860F911DA11DB11D62E0880F991FAA1F82
:10253000BB1F6A95D1F7BC012DC0FFB7F8948091FD
:10254000420890914308A0914408B0914508E6B52F
:10255000A89B05C0EF3F19F00196A11DB11DFFBF5B
:10256000BA2FA92F982F88278E0F911DA11DB11D5D
:10257000E2E0880F991FAA1FBB1FEA95D1F7861BBF
:10258000970B885E9340C8F2215030404040504045
:1025900068517C4F211531054105510571F60895AB
:1025A000789484B5826084BD84B5816084BD85B52E
:1025B000826085BD85B5816085BDEEE6F0E08081F5
:1025C00081608083E1E8F0E0108280818260808316
:1025D000808181608083E0E8F0E080818160808399
:1025E000E1EBF0E0808184608083E0EBF0E08081CB
:1025F00081608083E1E9F0E0808182608083808176
:1026000081608083E0E9F0E0808181608083E1EA9D
:10261000F0E0808182608083808181608083E0EA55
:10262000F0E0808181608083E1E2F1E0808182607E
:102630008083808181608083E0E2F1E0808181603D
:102640008083EAE7F0E0808184608083808182601B
:102650008083808181608083808180688083109204
:10266000C1000895883008F078C0E82FF0E0EE0F40
:10267000FF1FE55BF74F718360838330D9F08430AF
:1026800030F4813009F444C0823060F439C08530C0
:1026900051F18530D8F0863009F446C0873009F012
:1026A0005CC04FC0809169008C7F842B809369004F
:1026B000E89A089580916900440F551F440F551FF3
:1026C000837F842B80936900E99A08958091690043
:1026D00074E0440F551F7A95E1F78F7C842B80932B
:1026E0006900EA9A08958091690066E0440F551FD9
:1026F0006A95E1F78F73842B80936900EB9A0895B4
:1027000080916A008C7F842B80936A00EC9A0895F4
:1027100080916A00440F551F440F551F837F842BFF
:1027200080936A00ED9A089580916A0024E0440F36
:10273000551F2A95E1F78F7C842B80936A00EE9ACF
:10274000089580916A0096E0440F551F9A95E1F72D
:102750008F73842B80936A00EF9A08951F920F92D3
:102760000FB60F920BB60F9211242F933F934F93F6
:102770005F936F937F938F939F93AF93BF93EF93E9
:10278000FF9380914F0890915008892B29F0E09198
:102790004F08F09150081995FF91EF91BF91AF91BB
:1027A0009F918F917F916F915F914F913F912F9169
:1027B0000F900BBE0F900FBE0F901F9018951F9299
:1027C0000F920FB60F920BB60F9211242F933F93D7
:1027D0004F935F936F937F938F939F93AF93BF9329
:1027E000EF93FF938091510890915208892B29F023
:1027F000E0915108F09152081995FF91EF91BF9126
:10280000AF919F918F917F916F915F914F913F9188
:102810002F910F900BBE0F900FBE0F901F90189529
:102820001F920F920FB60F920BB60F9211242F9397
:102830003F934F935F936F937F938F939F93AF9348
:10284000BF93EF93FF938091530890915408892B85
:1028500029F0E0915308F09154081995FF91EF91F8
:10286000BF91AF919F918F917F916F915F914F91A8
:102870003F912F910F900BBE0F900FBE0F901F90A6
:1028800018951F920F920FB60F920BB60F9211244C
:102890002F933F934F935F936F937F938F939F9368
:1028A000AF93BF93EF93FF93809155089091560893
:1028B000892B29F0E0915508F09156081995FF9160
:1028C000EF91BF91AF919F918F917F916F915F91A8
:1028D0004F913F912F910F900BBE0F900FBE0F9015
:1028E0001F9018951F920F920FB60F920BB60F9272
:1028F00011242F933F934F935F936F937F938F9305
:102900009F93AF93BF93EF93FF9380914B08909168
:102910004C08892B29F0E0914B08F0914C0819954F
:10292000FF91EF91BF91AF919F918F917F916F91A7
:102930005F914F913F912F910F900BBE0F900FBE63
:102940000F901F9018951F920F920FB60F920BB613
:102950000F9211242F933F934F935F936F937F9325
:102960008F939F93AF93BF93EF93FF9380914D0805
:1029700090914E08892B29F0E0914D08F0914E0876
:102980001995FF91EF91BF91AF919F918F917F9199
:102990006F915F914F913F912F910F900BBE0F90D0
:1029A0000FBE0F901F9018951F920F920FB60F92A7
:1029B0000BB60F9211242F933F934F935F936F9316
:1029C0007F938F939F93AF93BF93EF93FF938091E8
:1029D000570890915808892B29F0E0915708F091F9
:1029E00058081995FF91EF91BF91AF919F918F91E9
:1029F0007F916F915F914F913F912F910F900BBEFF
:102A00000F900FBE0F901F9018951F920F920FB648
:102A10000F920BB60F9211242F933F934F935F9316
:102A20006F937F938F939F93AF93BF93EF93FF9396
:102A30008091590890915A08892B29F0E091590802
:102A4000F0915A081995FF91EF91BF91AF919F9125
:102A50008F917F916F915F914F913F912F910F9047
:102A60000BBE0F900FBE0F901F901895CF93DF9362
:102A7000482F50E0CA0188589E4FFC0134914E5CAB
:102A80005E4FFA018491882369F190E0880F991FC5
:102A9000FC01EC51FF4FA591B491FC01E250FF4FB6
:102AA000C591D491662351F42FB7F8948C91932F4C
:102AB000909589238C93888189230BC0623061F4BF
:102AC0002FB7F8948C91932F909589238C938881BC
:102AD000832B88832FBF06C09FB7F8948C91832BDC
:102AE0008C939FBFDF91CF910895893009F449C03D
:102AF0008A30A0F4843051F1853040F4823079F18D
:102B0000833000F5813009F063C026C0873079F149
:102B1000883098F5863009F05BC025C08D3009F407
:102B200042C08E3028F48B30B1F18C30C0F52DC00E
:102B3000803109F442C0813109F445C08F3009F079
:102B400047C037C0809180008F7703C0809180009C
:102B50008F7D80938000089584B58F7702C084B5FF
:102B60008F7D84BD08958091B0008F7703C08091E0
:102B7000B0008F7D8093B0000895809190008F7792
:102B800007C0809190008F7D03C080919000877F67
:102B90008093900008958091A0008F7707C0809166
:102BA000A0008F7D03C08091A000877F8093A0004C
:102BB0000895809120018F7703C0809120018F7D3F
:102BC00080932001089580912001877F80932001C8
:102BD0000895FF920F931F93F62E482F50E0CA01DD
:102BE00082549E4FFC012491CA0188589E4FFC01DB
:102BF00014914E5C5E4FFA0104910023C9F0222328
:102C000019F0822F0E947515E02FF0E0EE0FFF1FE4
:102C1000E250FF4FA591B4919FB7F894FF2021F4A3
:102C20008C911095812302C08C91812B8C939FBF36
:102C30001F910F91FF9008950F931F93482F50E01D
:102C4000CA0182549E4FFC012491CA0188589E4FAC
:102C5000FC0104914E5C5E4FFA011491112319F4AA
:102C600020E030E015C0222319F0822F0E94751554
:102C7000812F90E0880F991F885E9E4FFC01A591DF
:102C8000B4918C9120E030E0802311F021E030E01D
:102C9000C9011F910F910895382F863308F03653DC
:102CA00020917B00832F86958695869590E0817094
:102CB000907043E0880F991F4A95E1F7277F282BF2
:102CC00020937B003770809199078295880F880F39
:102CD000807C832B80937C0080917A008064809339
:102CE0007A0080917A0086FDFCCF20917800409197
:102CF0007900942F80E030E0282B392BC90108950A
:102D00002F923F924F925F926F927F928F929F92FB
:102D1000AF92BF92CF92DF92EF92FF920F931F93E9
:102D2000DF93CF93CDB7DEB73B014C0119012A01E8
:102D30006E897F89888D998D6A197B098C099D0917
:102D4000621A730A840A950AA40193010E94224020
:102D5000E218F30804091509A80197010E948A40A6
:102D60002A0D3B1D4C1D5D1DB901CA01CF91DF919C
:102D70001F910F91FF90EF90DF90CF90BF90AF9099
:102D80009F908F907F906F905F904F903F902F908B
:102D90000895CF92DF92EF92FF920F931F93CF93FC
:102DA000DF937C016B018A01C0E0D0E00FC0D60147
:102DB0006D916D01D701ED91FC910190F081E02DB5
:102DC000C7011995C80FD91F0150104001151105F1
:102DD00071F7CE01DF91CF911F910F91FF90EF908E
:102DE000DF90CF900895EF92FF920F931F938C0185
:102DF000DC01ED91FC910190F081E02D6DE01995E1
:102E00007C01D801ED91FC910190F081E02DC80189
:102E10006AE019959C012E0D3F1DC9011F910F916C
:102E2000FF90EF900895EF92FF920F931F937C0114
:102E3000DC01ED91FC910190F081E02D19958C0160
:102E4000C7010E94F316080F191FC8011F910F91A7
:102E5000FF90EF900895CF93DF93DB010D9000205A
:102E6000E9F71197A61BB70BEC01E881F981028005
:102E7000F381E02DAD011995DF91CF9108950E9466
:102E80002B170895EF92FF920F931F937C010E94DE
:102E90002B178C01C7010E94F316080F191FC801D8
:102EA0001F910F91FF90EF900895CF93DF930E94B1
:102EB000D0120E94C90AC8E4D8E10E94C005209738
:102EC000E1F30E944818F9CF08951F920F920FB6B0
:102ED0000F920BB60F9211242F933F934F938F9322
:102EE0009F93EF93FF934091C60020919B083091F0
:102EF0009C082F5F3F4F2F73307080919D089091F9
:102F00009E082817390759F0E0919B08F0919C081A
:102F1000E55AF74F408330939C0820939B08FF911C
:102F2000EF919F918F914F913F912F910F900BBEF9
:102F30000F900FBE0F901F90189508951F920F923B
:102F40000FB60F920BB60F9211242F933F934F930E
:102F50008F939F93EF93FF934091CE00209123098D
:102F6000309124092F5F3F4F2F73307080912509D6
:102F7000909126092817390759F0E0912309F0911B
:102F80002409ED51F74F40833093240920932309FE
:102F9000FF91EF919F918F914F913F912F910F90C2
:102FA0000BBE0F900FBE0F901F90189508951F92A3
:102FB0000F920FB60F920BB60F9211242F933F93DF
:102FC0004F938F939F93EF93FF934091D60020915F
:102FD000AB093091AC092F5F3F4F2F733070809158
:102FE000AD099091AE092817390759F0E091AB0966
:102FF000F091AC09E559F64F40833093AC0920932A
:10300000AB09FF91EF919F918F914F913F912F913C
:103010000F900BBE0F900FBE0F901F901895089544
:103020001F920F920FB60F920BB60F9211242F938F
:103030003F934F938F939F93EF93FF93409136016C
:103040002091330A3091340A2F5F3F4F2F73307035
:103050008091350A9091360A2817390759F0E09186
:10306000330AF091340AED50F64F40833093340A1E
:103070002093330AFF91EF919F918F914F913F9150
:103080002F910F900BBE0F900FBE0F901F901895B1
:10309000E091870AF091880AE05CFF4F819191915D
:1030A00020813181821B930B8F739070892B11F0DB
:1030B0000E946417E091A60AF091A70AE05CFF4F16
:1030C0008191919120813181821B930B8F7390703C
:1030D000892B11F00E949D17E091C50AF091C60A54
:1030E000E05CFF4F8191919120813181821B930B94
:1030F0008F739070892B11F00E94D617E091E40A2B
:10310000F091E50AE05CFF4F81919191208131813E
:10311000821B930B8F739070892B11F00E940F18F4
:1031200008951F920F920FB60F920BB60F921124B3
:103130002F933F938F939F93EF93FF932091DF08FB
:103140003091E0088091E1089091E2082817390752
:1031500031F48091C1008F7D8093C10014C0E09153
:10316000E108F091E208E156F74F20818091E108F3
:103170009091E20801968F7390709093E20880938B
:10318000E1082093C600FF91EF919F918F913F91AD
:103190002F910F900BBE0F900FBE0F901F901895A0
:1031A0001F920F920FB60F920BB60F9211242F930E
:1031B0003F938F939F93EF93FF93209167093091F3
:1031C00068098091690990916A092817390731F4D3
:1031D0008091C9008F7D8093C90014C0E091690976
:1031E000F0916A09E95DF64F20818091690990911B
:1031F0006A0901968F73907090936A0980936909A8
:103200002093CE00FF91EF919F918F913F912F914D
:103210000F900BBE0F900FBE0F901F9018951F922E
:103220000F920FB60F920BB60F9211242F933F936C
:103230008F939F93EF93FF932091EF093091F009C3
:103240008091F1099091F2092817390731F48091A2
:10325000D1008F7D8093D10014C0E091F109F091ED
:10326000F209E155F64F20818091F1099091F20920
:1032700001968F7390709093F2098093F1092093D7
:10328000D600FF91EF919F918F913F912F910F90D9
:103290000BBE0F900FBE0F901F9018951F920F92AC
:1032A0000FB60F920BB60F9211242F933F938F936B
:1032B0009F93EF93FF932091770A3091780A809142
:1032C000790A90917A0A2817390731F480913101EF
:1032D0008F7D8093310114C0E091790AF0917A0AD0
:1032E000E95CF54F20818091790A90917A0A0196E4
:1032F0008F73907090937A0A8093790A20933601A5
:10330000FF91EF919F918F913F912F910F900BBE65
:103310000F900FBE0F901F901895AF92BF92DF9243
:10332000EF92FF920F931F93CF93DF93EC017A01FB
:103330008B01DD24403081EE580780E0680780E093
:10334000780711F0DD24D39491E0A92EB12CEC89FB
:10335000FD89DD2069F0C5010E8C02C0880F991F20
:103360000A94E2F7808360E079E08DE390E005C0A5
:10337000108260E874E88EE190E0A80197010E9455
:103380006840215030404040504056954795379511
:10339000279580E12030380720F0DD2011F0DD2472
:1033A000D6CFE889F9893083EA89FB892083EE89C1
:1033B000FF89408121E030E0C9010A8C02C0880FFA
:1033C000991F0A94E2F7482B4083EE89FF894081D8
:1033D000C9010B8C02C0880F991F0A94E2F7482B91
:1033E0004083EE89FF894081C9010C8C02C0880F9F
:1033F000991F0A94E2F7482B4083EE89FF89808168
:103400000D8C02C0220F331F0A94E2F72095282367
:103410002083DF91CF911F910F91FF90EF90DF906C
:10342000BF90AF900895DC011C96ED91FC911D9723
:10343000E05CFF4F2191319180819181281B390BF4
:103440002F733070C9010895DC011C96ED91FC9139
:103450001D97E05CFF4F20813181E054F040DF0197
:10346000AE5BBF4F8D919C9111972817390719F4C6
:103470002FEF3FEF07C08D919C91E80FF91F8081DE
:10348000282F30E0C9010895DC011C96ED91FC91D4
:103490001D97E05CFF4F20813181E054F040DF0157
:1034A000AE5BBF4F8D919C9111972817390719F486
:1034B0002FEF3FEF10C08D919C911197E80FF91FEE
:1034C00020818D919C91119701968F739070119628
:1034D0009C938E9330E0C9010895FC018685978501
:1034E000DC01A05CBF4FFC01EE5BFF4F2D913C91D6
:1034F00011978081918128173907C1F70895CF93DB
:10350000DF93EC01EE85FF85E05CFF4F2081318188
:10351000E054F0402F5F3F4F2F733070DF01AE5B00
:10352000BF4F8D919C91119728173907D1F3E05C1B
:10353000FF4F80819181E054F040E80FF91F6083D4
:10354000EE85FF85E05CFF4F31832083EE89FF89A4
:10355000208181E090E00D8C02C0880F991F0A94B1
:10356000E2F7282B208381E090E0DF91CF9108954E
:103570001F9310927E0A10927D0A28EE33E040E0FD
:1035800050E020937F0A3093800A4093810A509341
:10359000820A66EA77E070937C0A60937B0A8BE587
:1035A00098E09093880A8093870A8FE998E0909337
:1035B0008A0A8093890A85EC90E090938C0A809324
:1035C0008B0A84EC90E090938E0A80938D0A80ECB5
:1035D00090E09093900A80938F0A81EC90E0909312
:1035E000920A8093910A86EC90E09093940A8093DB
:1035F000930A14E01093950AB3E0B093960AA7E0FB
:10360000A093970AF5E0F093980AE1E0E093990A15
:1036100010929D0A10929C0A20939E0A30939F0A52
:103620004093A00A5093A10A70939B0A60939A0A50
:1036300083EE98E09093A70A8093A60A87E299E028
:103640009093A90A8093A80A8DEC90E09093AB0A1E
:103650008093AA0A8CEC90E09093AD0A8093AC0A18
:1036600088EC90E09093AF0A8093AE0A89EC90E0EA
:103670009093B10A8093B00A8EEC90E09093B30AD5
:103680008093B20A1093B40AB093B50AA093B60A15
:10369000F093B70AE093B80A1092BC0A1092BB0AE2
:1036A0002093BD0A3093BE0A4093BF0A5093C00ACC
:1036B0007093BA0A6093B90A8BE699E09093C60AB0
:1036C0008093C50A8FEA99E09093C80A8093C70A4D
:1036D00085ED90E09093CA0A8093C90A84ED90E04A
:1036E0009093CC0A8093CB0A80ED90E09093CE0A21
:1036F0008093CD0A81ED90E09093D00A8093CF0A19
:1037000086ED90E09093D20A8093D10A1093D30A69
:10371000B093D40AA093D50AF093D60AE093D70ABF
:103720001092DB0A1092DA0A2093DC0A3093DD0A49
:103730004093DE0A5093DF0A7093D90A6093D80A47
:1037400083EF99E09093E50A8093E40A87E39AE097
:103750009093E70A8093E60A85E391E09093E90A63
:103760008093E80A84E391E09093EB0A8093EA0A5D
:1037700080E391E09093ED0A8093EC0A81E391E07D
:103780009093EF0A8093EE0A86E391E09093F10A1A
:103790008093F00A1093F20AB093F30AA093F40A0C
:1037A000F093F50AE093F60A1F910895FC017583E2
:1037B0006483718760875783468353874287158A5E
:1037C000158614861786168621E0248B8FEF9FEFCF
:1037D000938B828B918B808B268B08952F923F92B7
:1037E0004F925F926F927F928F929F92AF92BF9211
:1037F000CF92DF92EF92FF920F931F93DF93CF93BD
:10380000CDB7DEB72E970FB6F894DEBF0FBECDBF93
:103810009E878D871B015E834D83A701260171E082
:10382000C72ED12CC21AD30AC901880F991F662747
:103830007727681B790B7A8369836D807E80089473
:103840006108710883E0882E912C8E0C9F1C7901F1
:1038500081E090E09C838B83AA24BB2410E0D801F4
:10386000A170B070B887AF83FA013196FA87E98703
:10387000B801627070707C876B8777C0D7FC0AC014
:103880000894E108F10889819A8102969A838983D4
:10389000C80ED91E0894A11CB11CAB81BC81129624
:1038A000BC83AB83EF81F885EF2B41F1AD85BE85FD
:1038B000ED91FC911197B501620D731D4D815E81F3
:1038C0004E195F099701220F331F89859A85280FAA
:1038D000391F0284F385E02DCD0182011995AD8554
:1038E000BE85ED91FC911197B701620D731D0284A5
:1038F000F385E02DCD01A30194011995EB85FC859D
:10390000EF2B41F1AD85BE85ED91FC911197B10191
:103910006A197B094D815E814E195F099701220F5B
:10392000331F89859A85280F391F0284F385E02D7E
:10393000CD0182011995AD85BE85ED91FC91119760
:10394000B1016E197F090284F385E02DCD01A30139
:1039500094011995EB81FC81CE0EDF1E089461085D
:10396000710862E070E0860E971EAE14BF040CF47E
:1039700085CF2E960FB6F894DEBF0FBECDBFCF9188
:10398000DF911F910F91FF90EF90DF90CF90BF904C
:10399000AF909F908F907F906F905F904F903F90EF
:1039A0002F9008956F927F928F929F92AF92BF92C5
:1039B000CF92DF92EF92FF920F931F937C014B0106
:1039C0003A0159016801DC01ED91FC91421B530B56
:1039D000220F331F2F5F3F4F0284F385E02D19958F
:1039E000C701B401A301950103E0EE24FF240E9466
:1039F000EE1B1F910F91FF90EF90DF90CF90BF9043
:103A0000AF909F908F907F906F9008952F923F92EC
:103A10004F925F926F927F928F929F92AF92BF92DE
:103A2000CF92DF92EF92FF920F931F93DF93CF938A
:103A300000D00F92CDB7DEB73C017C836B836A0167
:103A40005901FA82E982222433249801241B350B80
:103A500037FF03C0309521953F4FC5014B815C81F5
:103A6000841B950B97FF03C0909581959F4F8217FC
:103A700093075CF481E0282E312CC601CB80DC80DA
:103A80009C838B83C80185015C018B819C81A81676
:103A9000B90644F4C501AB80BC809C838B83C8010C
:103AA00086016C012501AB81BC814A1A5B0A780151
:103AB000EC18FD08F7FE04C0F094E194F108F394CB
:103AC000C016D10624F088248A94982C03C0B1E053
:103AD0008B2E912CC20162E070E00E9455408B0158
:103AE00025C0D301ED91FC912114310441F00480F3
:103AF000F581E02DC301B6014B815C8107C00480D4
:103B0000F581E02DC3016B817C81A60129813A8179
:103B100019950E191F0917FF04C0C80CD91C040DF4
:103B2000151DEB81FC813196FC83EB834B815C811D
:103B3000A416B506B4F60F900F900F900F90CF918A
:103B4000DF911F910F91FF90EF90DF90CF90BF908A
:103B5000AF909F908F907F906F905F904F903F902D
:103B60002F9008954F925F926F927F928F929F92C3
:103B7000AF92BF92CF92DF92EF92FF920F931F937B
:103B80006C015B014A0139012801DC01ED91FC91D6
:103B90000484F585E02D87011995D601ED91FC91FE
:103BA000A40141505040440D551D0484F585E02D7D
:103BB000C601B50193011995D601ED91FC910284DE
:103BC000F385E02DC601B501A40192011995D60136
:103BD000ED91FC910894A108B108A60CB71C0284D1
:103BE000F385E02DC601B501A401920119951F913D
:103BF0000F91FF90EF90DF90CF90BF90AF909F908C
:103C00008F907F906F905F904F9008952F923F928A
:103C10004F925F926F927F928F929F92AF92BF92DC
:103C2000CF92DF92EF92FF920F931F93DF93CF9388
:103C3000CDB7DEB72F970FB6F894DEBF0FBECDBF5E
:103C40005C015E834D8318870F83FA86E986CB86F5
:103C5000DC0118968D919C911997681779070CF0E3
:103C6000A4C01A968D919C911B97481759070CF088
:103C70009CC0EC2DF0E0FF87EE87CF01880F991FE5
:103C8000880F991F8E0F9F1F860F971F18161906F2
:103C90000CF08BC0CF01A3E0880F991FAA95E1F724
:103CA000840F951F181619060CF07FC085E0289F19
:103CB000A00111245A8349832B011B011C825C81C2
:103CC000553011F480E005C0E981FA81EC5FFD4FC9
:103CD00084912C863D866D807E8043011B82C82E98
:103CE000DD2480FF1CC0D501ED91FC91BB85B13076
:103CF00049F40480F581E02DC501B201A3012F81B3
:103D0000388522C00088F189E02DC5016C857D854C
:103D1000A4012E853F858901EF80F88423C0E985C1
:103D2000FA852F813885E217F307E9F0D501ED9187
:103D3000FC91BB85B13051F40480F581E02DC501C3
:103D4000B201A30129853A8519950DC00088F18932
:103D5000E02DC5016C857D85A4012E853F858901F7
:103D6000E984FA841995EB81EF5FEB832E853F851B
:103D7000820E931E0894611C711CE83021F0D594CA
:103D8000C7948C2DACCF3C813F5F3C834E855F85D3
:103D9000240E351E0894411C511C89819A8101967C
:103DA0009A838983363009F08ACF2F960FB6F8941C
:103DB000DEBF0FBECDBFCF91DF911F910F91FF905E
:103DC000EF90DF90CF90BF90AF909F908F907F90BB
:103DD0006F905F904F903F902F900895CF92EF9209
:103DE000FF920F931F93CF93DF93EC01262F6A303E
:103DF00061F42C8930E003E0220F331F0A95E1F7CC
:103E00008E859F85820F931F37C06D30C9F16C85F9
:103E10007D854E855F8508891989EA88FB88CC886D
:103E20000E94061E2C8986E0289FB00111248C85F3
:103E30009D85680F791F7D876C878E89882301F1A6
:103E4000422F50E08AEF9FEF9C01429FC001439FA9
:103E5000900D529F900D112428853985820F931F54
:103E6000861797076CF413E0440F551F1A95E1F776
:103E70008E859F85840F951F9F878E871D861C8644
:103E800081E090E0DF91CF911F910F91FF90EF9033
:103E9000CF900895FC0175876487578746870895FA
:103EA000FC01662309F461E0648B0895FC01718BC9
:103EB000608B738B628B0895FC011382128286EBF8
:103EC00097E09183808360A341A322A381E0878B45
:103ED00014A213A20895DC0157968C91579788235A
:103EE00029F06EBD0DB407FEFDCF089530E840E027
:103EF00050E070E0832F90E0862397235896ED9151
:103F0000FC91599795962C919597892B21F080815A
:103F1000822B808304C080812095282320835A9699
:103F2000ED91FC915B97808196969C919697892B59
:103F300080835A96ED91FC915B97908196968C9137
:103F4000969780958923808336954F5F5F4F4830E1
:103F5000510581F608950F931F938C01DC015E9645
:103F6000ED91FC915F97908198968C9198978095B0
:103F7000892380835C96ED91FC915D979081979663
:103F80008C91809589238083C8010E946B1FD80182
:103F90005C96ED91FC915D97808197969C91892B21
:103FA00080831F910F9108950F931F938C01DC0163
:103FB0005E96ED91FC915F97808198969C91989781
:103FC000892B80835C96ED91FC915D97908197960B
:103FD0008C91809589238083C8010E946B1FD80132
:103FE0005C96ED91FC915D97808197969C91892BD1
:103FF00080831F910F910895CF92DF92EF92FF92ED
:104000000F931F937C01162FC42ED22E6AE20E94BA
:10401000AB1FC70160E00E94D41FF70161A5610FCB
:10402000C7010E94D41FC70160E00E94D41FF7019E
:1040300061A56D0DC7010E94D41FC7016BE20E94EC
:10404000AB1FC70160E00E94D41FF70162A56C0D91
:10405000C7010E94D41FC70160E00E94D41FF7016E
:1040600062A5600FC7010E94D41FC7016CE20E94C5
:10407000AB1F1F910F91FF90EF90DF90CF900895AD
:10408000EF92FF920F931F93CF93DF93EC017B018D
:10409000288521500A85015060E040E00E94FC1F05
:1040A000EE8DFF8D808198A5892B8083EC8DFD8D11
:1040B00090818FA18095892380831A850EC0088501
:1040C00009C0CE016F2D0E946B1FCE016E2D0E9484
:1040D0006B1F01500023A9F71150112381F7EC8DBC
:1040E000FD8D80819FA1892B8083DF91CF911F91CE
:1040F0000F91FF90EF900895FF920F931F938C0103
:10410000F62E672FDC015E96ED91FC915F97808122
:1041100098969C919897892B80835C96ED91FC9161
:104120005D97908197968C91809589238083C801B3
:104130000E946B1FC8016F2D0E946B1FD8015C96F7
:10414000ED91FC915D97808197969C91892B80835E
:104150001F910F91FF900895FF920F931F93CF939C
:10416000DF93EC01F22E132F77FD2EC08885998501
:10417000681779074CF557FD27C08A859B85481736
:10418000590714F5262F2F5F042F0F5FCE010E94D1
:10419000FC1FEE8DFF8D808198A5892B8083EC8D8F
:1041A000FD8D90818FA1809589238083CE01612F21
:1041B0000E946B1FCE016F2D0E946B1FEC8DFD8D39
:1041C00080819FA1892B8083DF91CF911F910F91D7
:1041D000FF900895DF92EF92FF920F931F93CF937A
:1041E000DF93EC01FB017901D02E88859985681752
:1041F0007907D4F52A853B8542175307ACF5C701EB
:10420000840F951F281739071CF47901E41AF50A61
:10421000042F01500E0DCE016E2F2E2F0E94FC1F79
:10422000EE8DFF8D808198A5892B8083EC8DFD8D8F
:1042300090818FA180958923808308C0CE01612F52
:104240000E946B1FCE016D2D0E946B1F0894E10828
:10425000F1088FEFE8168FEFF80681F7EC8DFD8DF2
:1042600080819FA1892B8083DF91CF911F910F9136
:10427000FF90EF90DF900895DF92EF92FF920F93FF
:104280001F93CF93DF93EC01FA017901D02E28859B
:10429000398562177307D4F58A859B8548175907B6
:1042A000ACF5C701860F971F281739071CF4790151
:1042B000E61AF70A262F21502E0DCE014E2F0E2F73
:1042C0000E94FC1FEE8DFF8D808198A5892B808335
:1042D000EC8DFD8D90818FA180958923808308C00E
:1042E000CE01612F0E946B1FCE016D2D0E946B1FAE
:1042F0000894E108F1088FEFE8168FEFF80681F7D0
:10430000EC8DFD8D80819FA1892B8083DF91CF91E2
:104310001F910F91FF90EF90DF900895AF92BF92A1
:10432000CF92DF92EF92FF920F931F93CF93DF9381
:104330006C015901E801DC0118962D913C91199707
:10434000621773070CF057C01A96ED91FC911B97FA
:104350004E175F070CF04FC0C501860F971F281737
:1043600039071CF45901A61AB70ACE01840F951F0C
:10437000E817F9071CF4EF01C41BD50B262F2150B9
:104380002A0D042F01500C0FC6010E94FC1FD601FC
:104390005E96ED91FC915F97808198969C9198979D
:1043A000892B80835C96ED91FC915D979081979627
:1043B0008C918095892380838E010EC0C6016F2D5C
:1043C0000E946B1FC6016E2D0E946B1F21971C1649
:1043D0001D06A4F3015010401016110614F4E50157
:1043E000F6CFD6015C96ED91FC915D978081979612
:1043F0009C91892B8083DF91CF911F910F91FF902A
:10440000EF90DF90CF90BF90AF9008951F93CF9320
:10441000DF93EC01162F66E30E94AB1F13701D8B18
:10442000113051F0113028F0123049F01330F1F40E
:1044300011C0CE0168EC05C0CE0168EA0DC0CE0106
:1044400068E00E94D41F80E890E09987888780EA1E
:1044500090E00AC0CE0168E60E94D41F80EA90E096
:104460009987888780E890E09B878A87DF91CF9142
:104470001F910895662311F460E201C061E20E9479
:10448000AB1F0895AF92BF92CF92DF92EF92FF924F
:104490000F931F93CF93DF935C01FB01EB012196F8
:1044A000D49031C08E010F5F1F4FFE016491C50192
:1044B0000E94AB1F78010894E11CF11CF801C49024
:1044C0000C2D0F77E701102F08C0FE012196E49113
:1044D000C5016E2F0E94D41F11501123B1F7E701BF
:1044E000C00FD11DC7FE0EC0FE018491682F70E081
:1044F0006F3F710511F464EF71E0219680E090E068
:104500000E947712DA94DD2069F6DF91CF911F9136
:104510000F91FF90EF90DF90CF90BF90AF900895F4
:104520000F931F93CF93DF93EC018B0160E870E052
:1045300040EA50E00E94D61B1AA619A689A161E0A4
:104540000E94361588A161E00E943615E8A12E2F41
:1045500030E0F901EE5CFE4FE491F0E0EE0FFF1F5A
:10456000E250FF4F859194919D8F8C8F28583E4F3C
:10457000F90184918FA3E9A12E2F30E0F901EE5CBF
:10458000FE4FE491F0E0EE0FFF1FE250FF4F8591E8
:1045900094919F8F8E8F28583E4FF901849188A760
:1045A0008F89882361F00E94E13680E00E94D03636
:1045B00081E00E94C23680E00E94CB363DC08CA1D3
:1045C00061E00E9436158BA161E00E943615ECA1D6
:1045D0008E2F90E0FC01EE5CFE4FE491F0E0EE0FD8
:1045E000FF1FE250FF4FA591B491BB8FAA8F88584F
:1045F0009E4FFC0144914EA3EBA12E2F30E0F90118
:10460000EE5CFE4FE491F0E0EE0FFF1FE250FF4F33
:1046100085919491998F888F28583E4FF901849104
:104620008DA38C91409548234C93E88DF98D908112
:104630008DA1809589238083EC8DFD8D90818FA144
:104640008095892380838AA1882309F161E00E94F3
:1046500036158AA161E00E94E91564EF71E080E0FF
:1046600090E00E9477128AA160E00E94E91564EF51
:1046700071E080E090E00E9477128AA161E00E94E0
:10468000E91564EF71E080E090E00E947712011577
:10469000110521F0CE01B8010E944222DF91CF9195
:1046A0001F910F9108951F93CF93DF93EC01162F65
:1046B0006FEF76E00E949022112351F4CE016AE35D
:1046C00077E00E94422282E089A781E08AA705C0A4
:1046D000CE0167E477E00E944222CE0164E577E0F4
:1046E0000E944222DF91CF911F91089582E090E0D5
:1046F000A0E0B0E08093F70A9093F80AA093F90A3B
:10470000B093FA0A10920E0B1092180B1092170B1E
:104710008EED97E09093160B8093150B10921A0B69
:104720001092370B1092380B10923B0B10923D0BEE
:1047300008952F923F924F925F926F927F928F9245
:104740009F92AF92BF92CF92DF92EF92FF920F9320
:104750001F93DF93CF93CDB7DEB7C754D0400FB6CA
:10476000F894DEBF0FBECDBF582E492EFB013A0193
:10477000190180A191A1998B888B2EED37E03F879D
:104780002E8782A18A8B83A18B8B84A195A1A6A160
:10479000B7A18C8B9D8BAE8BBF8B80A591A5A2A55D
:1047A000B3A5888F998FAA8FBB8F84A595A5A6A541
:1047B000B7A58C8F9D8FAE8FBF8F80A988A381A94D
:1047C00092A9A3A9B4A989A39AA3ABA3BCA385A9C1
:1047D00096A9A7A9B0AD8DA39EA3AFA3B8A781AD9D
:1047E00092AD9AA789A71EA61DA63CA72BA718AA1B
:1047F0007A018E01025F1F4F3BE2A32EB12CAC0E5B
:10480000BD1E4E010894811C911C35C0D7018C91AE
:104810008F3221F40894E11CF11C2DC0422F4E1957
:104820004D3008F04CE0C42EDD24C401B701A601D0
:104830000E94A639F401EC0DFD1D1082C5010E94F5
:10484000A128C501B801A40121E00E94E92D882317
:1048500051F4E52DF42D138212828EED97E09183B1
:104860008083158266C0EC0CFD1CC8010E94A12843
:10487000C50158018C01C7016FE270E00E949B39AD
:104880009C01009719F6E618F708F101F182E08221
:10489000E52DF42DD80112968D919C911397938359
:1048A00082838EED97E09183808314968C91149788
:1048B000848315968C911597858316962D913D913D
:1048C0004D915C91199726833783408751871A96BB
:1048D0002D913D914D915C911D972287338744879F
:1048E00055871E962D913D914D915C91519726874C
:1048F0003787408B518B52968C915297828B53966F
:104900002D913D914D915C915697238B348B458B26
:10491000568B57962D913D914D915C915A97278BCF
:10492000308F418F528F5B968D919C915C97948FC5
:10493000838F852D942DC95BDF4F0FB6F894DEBFB2
:104940000FBECDBFCF91DF911F910F91FF90EF90E0
:10495000DF90CF90BF90AF909F908F907F906F909F
:104960005F904F903F902F9008959F92AF92BF928B
:10497000CF92DF92EF92FF920F931F93DF93CF932B
:10498000CDB7DEB7C657D0400FB6F894DEBF0FBE26
:10499000CDBFC82E992E8A01D22E43E0A42EB12C71
:1049A000AC0EBD1EC501A8019E012F5F3F4F0E94A6
:1049B0009923E980FA80E00EF11EF70180814EED27
:1049C00057E02885882309F03FC08D819E819BA3F5
:1049D0008AA359A348A38F818CA32DA389859A8587
:1049E000AB85BC858EA39FA3A8A7B9A78D859E85FF
:1049F000AF85B8898AA79BA7ACA7BDA789899A89E3
:104A0000AB89BC898EA79FA7A8ABB9AB8D898AABB0
:104A10008E899F89A88DB98D8BAB9CABADABBEAB9E
:104A20008A8D9B8DAC8DBD8D8FAB98AFA9AFBAAF82
:104A30008E8D9F8D9CAF8BAF8C2D992DBE01605EAE
:104A40007F4F44EC56E09FC0FE01FF96118210821A
:104A50005EAF4DAFFE01EE5BFF4F10822223A9F047
:104A60002250CE01CD96223048F465E17BE0A701CB
:104A70002D2D0E94E92D882381F407C0B501A701DF
:104A80002D2D0E94E92D882329F48C2D992D0E942B
:104A90000D267BC0C5010E94A128F6E0DF2259F057
:104AA000FE01E05BFF4F4081518162817381CE0145
:104AB000CD960E9491279E01265A3F4FFE01FF96F8
:104AC00080819181F901938382838EED97E09183B8
:104AD0008083FE01EF5BFF4F8081F9018483FE013B
:104AE000EE5BFF4F8081F9018583FE01ED5BFF4F97
:104AF00080819181A281B381F90186839783A08708
:104B0000B187FE01E95BFF4F80819181A281B38172
:104B1000F90182879387A487B587FE01E55BFF4F84
:104B200080819181A281B381F90186879787A08BCB
:104B3000B18BFE01E15BFF4F8081F901828BFE01A9
:104B4000E05BFF4F80819181A281B381F901838B6A
:104B5000948BA58BB68BFE01EC5AFF4F808191811F
:104B6000A281B381F901878B908FA18FB28FFE0153
:104B7000E85AFF4F80819181F901948F838F8C2DAA
:104B8000992DB901A7010E9417278C2D992DCA587C
:104B9000DF4F0FB6F894DEBF0FBECDBFCF91DF91D0
:104BA0001F910F91FF90EF90DF90CF90BF90AF904B
:104BB0009F900895EF92FF920F931F93CF93DF93EF
:104BC000EC01462F8C01055C1F4FC80161E00E947B
:104BD0002A318823D1F0FC2EED2ECE01B80141E020
:104BE0000E949732882339F4CE01B80140E00E9438
:104BF0009732882351F0CE014E966F2D7E2D0E9464
:104C0000D72A882319F081E001C080E0DF91CF919D
:104C10001F910F91FF90EF900895FC011382128273
:104C200088EE93E0A0E0B0E084839583A683B78309
:104C30008EEC97E091838083128E118E14860895F6
:104C4000FC018EEC97E0918380830895DF93CF93EE
:104C50000F92CDB7DEB7FC016983A081B1811296B6
:104C60002D913C911397BE016F5F7F4F41E050E063
:104C7000F90119950F90CF91DF910895DC015996B4
:104C8000ED91FC915A97309719F420E030E018C06C
:104C9000238934894589568982859385A485B5857C
:104CA000281B390B4A0B5B0B2030B0E83B07B0E008
:104CB0004B07B0E05B0720F02FEF3FE740E050E00C
:104CC000C9010895DC015996ED91FC915A973097EE
:104CD00011F480E008958581811181E00895CF93DA
:104CE000DF93EC01898D9A8D009741F00E94A128F5
:104CF000898D9A8D0E94EB381A8E198EDF91CF9193
:104D00000895FC01818D928D009711F480E0089543
:104D10000E9491270895FC01818D928D009711F0DA
:104D20000E9457280895FC01818D928D009719F4F7
:104D300020E030E003C00E9478299C01C901089559
:104D4000DF93CF930F92CDB7DEB7FC01818D928DAB
:104D5000009749F0BE016F5F7F4F41E050E00E9435
:104D60007829019719F02FEF3FEF03C08981282F91
:104D700030E0C9010F90CF91DF910895EF92FF923B
:104D80000F931F93DF93CF930F92CDB7DEB77C01C4
:104D9000DC0159968D919C915A97009719F400E087
:104DA00010E01FC0BE016F5F7F4F41E050E00E94E6
:104DB0007829019719F00FEF1FEF13C08981082F91
:104DC00010E0D7015996ED91FC915A974285538591
:104DD000648575854150504060407040CF010E940D
:104DE0009127C8010F90CF91DF911F910F91FF90F4
:104DF000EF900895CF93DF93EC01E98DFA8D309712
:104E000061F013821282CF010E94BD2B9C01E98DBB
:104E1000FA8D82819381892B31F081E090E09B8330
:104E20008A8320E030E0C901DF91CF910895EF92AD
:104E3000FF920F931F93CF93DF93EC01F62EE72E93
:104E40008A011B821A8288EE93E0A0E0B0E08C8396
:104E50009D83AE83BF838EEC97E0998388838DE139
:104E600090E00E944E389A8F898F009791F0DC0174
:104E70008F2D9E2D9C01F9018DE101900D928150A5
:104E8000E1F7CE010C96B8014CE050E00E94A63943
:104E9000188EDF91CF911F910F91FF90EF900895A1
:104EA000CF93DF93EC01DB0180E090E020E2FD0195
:104EB000E80FF91F208301968B309105C1F757E069
:104EC00040E021C02E3219F086EE97E007C05A303C
:104ED00019F15AE048E017C03217F1F0FC010196D1
:104EE00034913323C9F75417B8F02132A8F02F3783
:104EF00098F4822F81568A3108F42052FD01E40F84
:104F0000F11D20834F5F29912223E1F690E08C91DF
:104F1000803219F091E001C090E0892FDF91CF91AC
:104F200008956F927F928F929F92AF92BF92CF928D
:104F3000DF92EF92FF920F931F93CF93DF93EC01D9
:104F40007A018B012D81222309F480C08B899C89F1
:104F5000AD89BE8984179507A607B70708F476C000
:104F600085C0E114F1040105110549F41E821F8278
:104F7000188619861A861B861C861D8665C02A859A
:104F80003B854C855D85EB8DFC8D858590E0099694
:104F9000215030404040504039014A01082E04C0A1
:104FA00096948794779467940A94D2F72F5F3F4F33
:104FB0004F4F5F4F0894E108F108010911095701AB
:104FC000680104C0D694C794B794A7948A95D2F781
:104FD0000894E11CF11C011D111DA614B704C8049E
:104FE000D90428F0211531054105510549F48F896F
:104FF000988DA98DBA8D8E839F83A887B98716C097
:10500000A618B708C808D90811C04E815F81688505
:1050100079858B8D9C8D94010E9478340894A10829
:10502000B108C108D108882331F410C086E0882E69
:10503000912C8C0E9D1EA114B104C104D10429F73A
:10504000EA86FB860C871D8781E001C080E0DF9146
:10505000CF911F910F91FF90EF90DF90CF90BF9075
:10506000AF909F908F907F906F900895223009F0BD
:1050700078CFE6CFCF93DF93EC01462F6E857F8507
:10508000888999890E945C32882319F420E030E0F5
:105090000AC08A89282F30E095E0220F331F9A95A5
:1050A000E1F72E5B344FC901DF91CF9108950F9343
:1050B0001F93CF93DF938C01FC0185818823D9F165
:1050C000848187FF35C0C80161E00E943A28EC0165
:1050D000009789F1F8018581823040F483899489B1
:1050E000A589B6898C8F9D8FAE8FBF8FF801878978
:1050F000908D9B8F8A8F8789908DA18DB28DCD01E8
:10510000AA27BB279D8B8C8BE091400BF091410B24
:10511000309751F0BE016A5E7F4FCE0148961995D7
:10512000888D998D9B8B8A8BF80184818F778483FE
:105130000E94FD3101C080E0DF91CF911F910F915E
:105140000895CF93DF93EC010E945728882311F034
:105150001D8281E0DF91CF9108956F927F928F92AF
:105160009F92AF92BF92CF92DF92EF92FF920F93F6
:105170001F93DF93CF9300D00F92CDB7DEB77C01A2
:105180005A016B01DC0115968C911597813009F05D
:105190008FC014968C9181FF8BC09EC00097A10593
:1051A000B10511F481E085C0F701628473848484C1
:1051B0009584C701B601A5010E949127882309F4AF
:1051C00077C0D7015B968D919C915C97A114B10437
:1051D000C104D10489F457964D915D916D917C91F4
:1051E0005A970E94EB34882309F462C0F701178AAA
:1051F000108E118E128E3DC0D70116964D915D9185
:105200006D917C9119979E012F5F3F4F0E947834DA
:10521000882309F44DC0D7015B96ED91FC915C9712
:1052200049815A816B817C818789803129F088EF9F
:105230009FEFAFEFBFE004C088EF9FEFA0E0B0E0CA
:10524000481759076A077B07A0F4CF010E94EB3487
:10525000882371F1F7014681578160857185838DBF
:10526000948D0FEF1FEF2FEF3FE00E94DC33882378
:10527000F9F0D7015396AD92BD92CD92DC9256973C
:1052800014968C911497806814968C93C7010E9491
:105290005728882369F0B601A5016A147B048C04A1
:1052A0009D0410F4B401A301C7010E94912701C01D
:1052B00080E00F900F900F900F90CF91DF911F9192
:1052C0000F91FF90EF90DF90CF90BF90AF909F90A5
:1052D0008F907F906F900895F70183899489A589B5
:1052E000B68984179507A607B70708F057CFE0CF10
:1052F0002F923F924F925F926F927F928F929F92E6
:10530000AF92BF92CF92DF92EF92FF920F931F93D3
:10531000CF93DF93EC012A018D81882309F4C6C065
:105320008C8180FFC3C0D8C025014E185F084B0197
:1053300076E0272E312C2C0E3D1E3201B1C02A857D
:105340003B854C855D856FEFA62E61E0B62EA222CF
:10535000B3228D8179018A0199E016950795F7941A
:10536000E7949A95D1F7EB8DFC8D823049F4428D0C
:10537000538D648D758D4E0D5F1D601F711F3FC075
:10538000D480DA94DE20A114B104D9F4DD20C9F46C
:10539000211531054105510549F48F89988DA98D55
:1053A000BA8D8E839F83A887B9870BC04E815F819A
:1053B00068857985CF0191010E947834882309F4AA
:1053C00075C0EB8DFC8D4E815F816885798542507B
:1053D000504060407040058404C0440F551F661F54
:1053E000771F0A94D2F786859785A089B189480FDF
:1053F000591F6A1F7B1F4D0D511D611D711D80E0DE
:1054000092E08A199B0963018615970508F46C01DF
:105410008C8186FD06C080E0C81682E0D80609F0BF
:1054200073C080919A0790919B07A0919C07B091BF
:105430009D07481759076A077B0709F465C08091E3
:10544000420D9091430D9501860174010E947D30BB
:10545000882361F18C0C9D1C12C095012E5B344F8A
:10546000A9014C0D5D1DD401F90102C081918D93FC
:10547000E417F507D9F7E21BF30B8E0E9F1E96017A
:1054800040E050E08A859B85AC85BD85820F931FE7
:10549000A41FB51F8A879B87AC87BD876C187D08C2
:1054A0006114710409F04BCFA20102C04FEF5FEF0E
:1054B000CA01DF91CF911F910F91FF90EF90DF9084
:1054C000CF90BF90AF909F908F907F906F905F90A4
:1054D0004F903F902F900895AB88BC88CD88DE8890
:1054E000EA84FB840C851D859A0140E050E0D601DA
:1054F000C5018E199F09A00BB10B82179307A40752
:10550000B50708F411CF13CFCB01BA0140E00E94D8
:105510005C32882309F0A1CFC9CFCF92DF92EF92FE
:10552000FF920F931F93DF93CF930F92CDB7DEB708
:105530006C01FC018581823070F0E284F384048583
:105540001585C601BE016F5F7F4F41E050E00E94AC
:105550007829019769F020E030E0C9010F90CF91E0
:10556000DF911F910F91FF90EF90DF90CF90089502
:10557000F60182859385A485B5854F96A11DB11D41
:1055800082879387A487B587F5E016950795F794EA
:10559000E794FA95D1F78E2D8F70282F30E0E5E053
:1055A000220F331FEA95E1F72E5B344FD6CF0F93CE
:1055B0001F93CF93DF93EC018B018D81882309F03A
:1055C00041C0FB0187898031B1F482E08D831F8A5D
:1055D000188E198E1A8E808D918DA0E0B0E045E076
:1055E000880F991FAA1FBB1F4A95D1F78B8B9C8BE5
:1055F000AD8BBE8B15C0803229F583E08D83FB0116
:10560000428D538D648D758D4F8B588F698F7A8F36
:105610009E012D5E3F4FC8010E944435882391F0C2
:105620001C8F0B8F81E08C831E821F821886198647
:105630001A861B861C861D861E861F86188A198A56
:105640001A8A01C080E0DF91CF911F910F910895D8
:105650001F93CF93DF93EC01142FE62FF0E075E05A
:10566000EE0FFF1F7A95E1F7EE5BF44F83858171B2
:1056700021F0842F827409F054C06A8B80919A07BC
:1056800090919B07A0919C07B0919D078E879F8763
:10569000A88BB98B84899589A0E0B0E0BC0155271F
:1056A0004427828D938DA0E0B0E0482B592B6A2BC4
:1056B0007B2B4F8B588F698F7A8F838590E0887111
:1056C0009070009751F4848D958DA68DB78D8B8B3E
:1056D0009C8BAD8BBE8B81E00CC0409711F59E0179
:1056E0002D5E3F4F8B8D9C8D0E9444358823C9F0E1
:1056F00084E08D83812F8F708C831E821F82188699
:1057000019861A861B861C861D8616FD02C081E03E
:1057100009C0CE0140E050E060E070E00E94AD289A
:1057200001C080E0DF91CF911F910895CF93DF9367
:10573000EC019C012A5F3F4F8B8D9C8D41E050E036
:1057400060E070E00E94B3358823A1F08F89988DC6
:10575000A98DBA8D0097A105B10559F48E819F815D
:10576000A885B9858F8B988FA98FBA8F8C81806817
:105770008C8381E0DF91CF9108952F923F924F92D9
:105780005F927F928F929F92AF92BF92CF92DF9261
:10579000EF92FF920F931F93DF93CF9300D000D02F
:1057A000CDB7DEB76C01162F072F5E834D83DC016A
:1057B00015968C911597813009F070C114968C91D3
:1057C00081FF6CC18EC1F601438954896589768950
:1057D00082859385A485B58584179507A607B707A5
:1057E00031F0C6010E949127882309F457C1812F07
:1057F000902F9C0129012D803E8017C1D6015B9618
:10580000ED91FC915C97DA01C90119E0B695A79575
:10581000979587951A95D1F774807A9478227FEFBF
:10582000872E71E0972E82229322772009F04EC0B6
:105830008114910409F04AC0D60116964D915D91EC
:105840006D917C911997411551056105710581F4A0
:1058500057968D919D910D90BC91A02D0097A1051B
:10586000B10549F1F60186839783A087B1872EC0E1
:10587000CF019E012F5F3F4F0E947834882309F4A7
:1058800014C129813A814B815C81D6015B96ED91EF
:10589000FC915C978789803129F088EF9FEFAFEF0B
:1058A000BFE004C088EF9FEFA0E0B0E02817390701
:1058B0004A075B0730F0C6010E94962B882331F41B
:1058C000EDC0F601268337834087518780E092E060
:1058D0008819990951018215930508F45C01D601D4
:1058E0005B96ED91FC915C971696ED90FD900D9175
:1058F0001C9119978EEF9FEFAFEFBFEFE80EF91EE7
:105900000A1F1B1F058404C0EE0CFF1C001F111F83
:105910000A94D2F786859785A089B189E80EF91E89
:105920000A1F1B1FE70CF11C011D111D90E0A91699
:1059300092E0B90651F580919A0790919B07A0914A
:105940009C07B0919D078E159F05A007B10761F4D4
:105950008FEF9FEFAFEFBFEF80939A0790939B0776
:10596000A0939C07B0939D078091420D9091430DA9
:10597000B801A70192010E942030882309F48EC04B
:10598000A0E0B2E04A0E5B1E3EC08114910409F50E
:10599000F601228533854485558583899489A589B7
:1059A000B689281739074A075B0798F00E94FD312E
:1059B000882309F473C0E0929A07F0929B07009342
:1059C0009C0710939D078091440D81608093440D46
:1059D00008C0C801B70141E00E945C32882309F485
:1059E0005DC094012E5B344FA9014A0D5B1DD201AD
:1059F000F90102C08D918193E417F507D9F7E21BF5
:105A0000F30B4E0E5F1E2A183B08950140E050E054
:105A1000F60182859385A485B585820F931FA41F07
:105A2000B51F82879387A487B587D6011A962D91D3
:105A30003D914D915C911D972114310409F0DECE0A
:105A400053968D919D910D90BC91A02D8217930737
:105A5000A407B50748F4F601238B348B458B568B8E
:105A600084818068848311C08091400B9091410BA8
:105A7000892B59F08D819E81892B39F0D60114969E
:105A80008C911497806814968C93F601848183FF1F
:105A90000EC0C6010E945728882349F481E090E097
:105AA000D60113969C938E9312971E821D828D8130
:105AB0009E8126960FB6F894DEBF0FBECDBFCF9164
:105AC000DF911F910F91FF90EF90DF90CF90BF90EB
:105AD000AF909F908F907F905F904F903F902F90CE
