:100000000C9451070C9482070C9482070C9482077D
:100010000C9482070C9482070C9482070C9482073C
:100020000C9482070C9482070C9482070C9482072C
:100030000C9482070C9482070C9482070C9482071C
:100040000C9482070C9482070C9482070C9482070C
:100050000C9482070C9482070C9482070C94BB0FBB
:100060000C9482070C94ED250C9415250C948207B2
:100070000C9482070C9482070C9482070C948207DC
:100080000C9482070C9482070C9482070C948207CC
:100090000C94BA250C94D6240C9482070C948207F5
:1000A0000C9482070C9482070C9482070C948207AC
:1000B0000C9482070C9482070C9482070C9482079C
:1000C0000C9482070C9482070C9482070C94872569
:1000D0000C9497240C9482070C9454250C94582467
:1000E0000C94820787268A267D268126C1268E26A5
:1000F000922698269C26A026A626AA26AE26C126AB
:10010000B426B826BC260C9498260C9496220C94FF
:1001100092260C94BC260C9402210C94C11F0C94C2
:10012000381F0C946C220C9450220C943C100C94AC
:100130009C260C94AC100C9425220C9405100C9465
:10014000C1260C94AE260C94F11B0C948A260C94B8
:1001500013210C942B210C9481260C941F210C94B8
:10016000221B0C94B4260C948E120C948E260C94A4
:10017000AA260C94A6260C94E3220C9487260C94B1
:1001800032210C94A0260C94E3210C94621F0C9451
:1001900084070C94251F0C94E1160C9414170C94EE
:1001A00030220C9403210C94B8260C941E170C9446
:1001B000D0160C948D370C9426100C947F2C0C9434
:1001C0007D2611007F96290001007F9628003A01C4
:1001D00055C0021010C10141C50400228040360103
:1001E00068B00100B102B011B40102B60302023BD3
:1001F000B701C63A0155F704A9512C82C0020D0D72
:10020000C1024300C20100C50400480048B4010017
:10021000B60302023BE00F0F211C0B0E0849983871
:10022000091103141000E10F0F2F2B0C0E06477657
:1002300037071104231E00B00100B30402000000C0
:10024000B40100D003074218D103000710D2020105
:1002500002D3020102D4020102C005123B000211C6
:10026000C103101088C50103C60102C80C00323654
:10027000450616377577540C00CC0100F6030101D2
:1002800000CF03008130ED0464031281E803851080
:1002900078CB05392C003402F70120EA020000B0C7
:1002A0000100B102001BB40100C00121C10111C550
:1002B000023F3CC701B5360148F20100260101E0CA
:1002C0000F0F26240B0E0954A8460C17090F070020
:1002D000E10F00191B0410072A47390306063038BE
:1002E0000F360100B80101C0010EB00100C10410B9
:1002F000100202C006003500000102C50104D2024E
:100300000104CA0100EA0180B903FF83577F967F89
:1003100096B60125C0065050013C1E08B4070240A5
:10032000002A2A0D787F01F20B1616030808080828
:1003300010041616FD03110235B2050C0C00333300
:10034000B70135BB012BC00104C20201FFC301117B
:10035000C40120C6010FD002A4A1E00ED000050EFA
:10036000150D3743470915121619E10ED000050D7A
:100370000C062D44400E1C1816193A01557F0AB080
:100380000103E2013FC00122E20100B00100C0010F
:100390000AB00100000000000000000000000000A2
:1003A00000000000FFFF0F000004006208000808C2
:1003B0000003000C01030B5A020306090303171084
:1003C0000403002305030017060309630703090C50
:1003D00008030C100903322210001600110001015D
:1003E0001200000013000100000130030101370278
:1003F0000301000D800200610201B0C1FFFF320065
:10040000010000010200000103003010090001009A
:100410000C000000900000800F000000100200009F
:100420001102EF001202000013028F01000500000C
:100430000105000002055F00010401000404000042
:10044000FFFF320007000001FFFF32000002000042
:100450000102000000000000000000000000000099
:1004600000000100A4000100FFFF0A006000002757
:100470000800080830001402310015373200040665
:100480003300160E340011223500001536000785A2
:1004900037000714380003143900200090001500BD
:1004A0001000100411003702290046002A004600FF
:1004B000070000001200890113000011FFFF9600E1
:1004C0001200B90101000001020000020300301017
:1004D000090001000A0000000D0000000E003000BD
:1004E000610001006A00000080000000810000003F
:1004F00082005F009200000193000107FFFF50009F
:1005000007000001E500F078010000010200000290
:10051000030030100400000005000000080007027E
:10052000090000000A0000000C0000000D0000009F
:100530000F00000010000000110007001200000072
:100540001300000007000100FFFFC8001000901614
:1005500011002702FFFF320012000D00FFFF3200E2
:100560001300001229000A002B000D00FFFF3200CB
:1005700020000000210000003000000031000404D1
:100580003200030035000504360008083700070470
:1005900038000303390007073C0004053D00080844
:1005A00060000027610001006A0000008000000078
:1005B0008100000082000000830000008400000031
:1005C0008500000090001000920000000700330139
:1005D000E5000080000001000100000102000007AA
:1005E00003003010040000000800020209000000AF
:1005F0000A0000000C0000000D0000000F000000C9
:10060000100000001100070012000000130000009D
:10061000FFFF32001000B01711000700FFFF0A00B3
:1006200012003A01FFFF0A001300001A29000C0013
:10063000FFFF0A0030000000310005053200040011
:1006400035000600360007073700050138000200B4
:10065000390007073C0004073D000708600000A7B9
:10066000610001006A00000021000000200000007D
:100670008000000081000000820000008300000074
:10068000840000008500000090001000920000002F
:1006900093000300950010019700000098000000EF
:1006A00007007301FFFF3200FF000100F3000800A4
:1006B00000000100010000010200000703003010EB
:1006C00008000203090000001000000011000700EC
:1006D0001200000013000000FFFF32001000B014F1
:1006E000FFFF0A0011000700FFFF0A0012008E0042
:1006F0001300000C29001500FFFF0A003000000065
:100700003100070132000000350003023600020408
:100710003700000038000702390000003C000302E7
:100720003D000304600000A7610001009000290063
:1007300007003301FFFF3200150030009A0010005F
:10074000110020001000283412000200130038109D
:10075000FFFF280012001200FFFF280010002034C5
:1007600013004530FFFF4600300000003100020456
:100770003200070333000403340004003500010491
:100780003600070737000503380010063900100649
:1007900001000001020000030300301008000808F7
:1007A0000A000800600000276100010090003E017F
:1007B0009200000193000001A0000030A30010008F
:1007C0000700010007002100070023000700330095
:1007D0000700330111001A001200213113006C00D0
:1007E0001400494210000008FFFF0A0011001A011E
:1007F000FFFF0A0011001A03FFFF0A0011001A0789
:10080000FFFF0A0011001A0FFFFF0A0011003A0F44
:10081000FFFF1E000100280102000001030030104C
:1008200007001210080003030B0000110C00000069
:100830000F000118150020005000010151000306AF
:100840005200080453000000540005065500060439
:10085000560003035700030358001000590000100E
:1008600007001200FFFF2800070013000700170011
:1008700000002100240027002A002D003000330052
:1008800001010000040107010A0100002200250007
:1008900028002B002E003100340002010000050169
:1008A00008010B01000020002300260029002C0075
:1008B0002F003200000100000301060109010505B7
:1008C0000505070508080808020202020A0A0808C6
:1008D00004040404010101010101010103030303F4
:1008E00003030303040707070C0C0C0C0C0C0C0C83
:1008F0000202020206060606060606060B0B0B0B94
:100900000B0B0B0B010210202008081020401020B8
:1009100040800201020108040201010204081020C3
:1009200040808040201008040201800402018040C1
:10093000201008040201080402010102040810202A
:10094000408001020408102040800000090A0208CB
:100950000B0C0D070603040100000000000000005E
:100960000000000000000000000000000000000087
:1009700000000000000011100F0000000000000047
:100980000000000000000000000000000000000067
:1009900000000000003E5B4F5B3E3E6B4F6B3E1C19
:1009A0003E7C3E1C183C7E3C181C577D571C1C5E30
:1009B0007F5E1C00183C1800FFE7C3E7FF00182407
:1009C0001800FFE7DBE7FF30483A060E26297929B1
:1009D00026407F050507407F05253F5A3CE73C5AE6
:1009E0007F3E1C1C08081C1C3E7F14227F22145FC3
:1009F0005F005F5F06097F017F006689956A60601E
:100A000060606094A2FFA29408047E040810207E17
:100A1000201008082A1C08081C2A08081E1010109C
:100A2000100C1E0C1E0C30383E3830060E3E0E06E2
:100A3000000000000000005F000000070007001435
:100A40007F147F14242A7F2A1223130864623649F4
:100A50005620500008070300001C224100004122DC
:100A60001C002A1C7F1C2A08083E080800807030E1
:100A70000008080808080000606000201008040250
:100A80003E5149453E00427F400072494949462156
:100A900041494D331814127F1027454545393C4ACA
:100AA00049493141211109073649494936464949E1
:100AB000291E000014000000403400000008142229
:100AC0004114141414140041221408020159090697
:100AD0003E415D594E7C1211127C7F494949363E98
:100AE000414141227F4141413E7F494949417F097E
:100AF0000909013E414151737F0808087F00417F89
:100B000041002040413F017F081422417F40404086
:100B1000407F021C027F7F0408107F3E4141413E1E
:100B20007F090909063E4151215E7F0919294626A0
:100B30004949493203017F01033F4040403F1F20A4
:100B400040201F3F4038403F63140814630304787B
:100B500004036159494D43007F414141020408109B
:100B600020004141417F04020102044040404040D6
:100B7000000307080020545478407F284444383844
:100B800044444428384444287F38545454180008B6
:100B90007E090218A4A49C787F0804047800447D90
:100BA00040002040403D007F1028440000417F402D
:100BB000007C047804787C08040478384444443881
:100BC000FC1824241818242418FC7C080404084861
:100BD0005454542404043F44243C4040207C1C20B2
:100BE00040201C3C4030403C44281028444C90900D
:100BF000907C4464544C4400083641000000770067
:100C000000004136080002010204023C2623263C73
:100C10001EA1A161123A4040207A385454555921FE
:100C200055557941225454784221555478402054E6
:100C30005579400C1E527212395555555939545434
:100C4000545939555454580000457C410002457DA3
:100C5000420001457C407D1211127DF0282528F0CC
:100C60007C545545002054547C547C0A097F4932F9
:100C7000494949323A4444443A324A4848303A4170
:100C800041217A3A42402078009DA0A07D3D424219
:100C9000423D3D4040403D3C24FF2424487E4943A2
:100CA000662B2FFC2F2BFF0929F620C0887E090315
:100CB00020545479410000447D413048484A32383C
:100CC0004040227A007A0A0A727D0D19317D262968
:100CD000292F28262929292630484D402038080860
:100CE000080808080808382F10C8ACBA2F10283494
:100CF000FA00007B000008142A142222142A140887
:100D00005500550055AA55AA55AAFF55FF55FF0095
:100D10000000FF00101010FF00141414FF0010104A
:100D2000FF00FF1010F010F0141414FC001414F75E
:100D300000FF0000FF00FF1414F404FC141417104B
:100D40001F10101F101F1414141F00101010F0009B
:100D50000000001F101010101F10101010F01000D5
:100D60000000FF101010101010101010FF100000E5
:100D700000FF140000FF00FF00001F10170000FC20
:100D800004F414141710171414F404F40000FF00F2
:100D9000F714141414141414F700F714141417147B
:100DA00010101F101F141414F4141010F010F00081
:100DB000001F101F0000001F14000000FC140000A2
:100DC000F010F01010FF10FF141414FF1410101086
:100DD0001F00000000F010FFFFFFFFFFF0F0F0F039
:100DE000F0FFFFFF0000000000FFFF0F0F0F0F0FCD
:100DF0003844443844FC4A4A4A347E020206060219
:100E00007E027E0263554941633844443C04407E7F
:100E1000201E2006027E020299A5E7A5991C2A49F8
:100E20002A1C4C7201724C304A4D4D303048784883
:100E300030BC625A463D3E494949007E0101017E6F
:100E40002A2A2A2A2A44445F444440514A444040C2
:100E5000444A51400000FF0103E080FF0000080801
:100E60006B6B083612362436060F090F0600001881
:100E7000180000001010003040FF0101001F0101A8
:100E80001E00191D1712003C3C3C3C0000000000F5
:100E90007C3C3E5E2B3D3F2F5B5D3B2C2A225C0061
:100EA0008D3711241FBECFEFD1E2DEBFCDBF00E0F2
:100EB0000CBF13E0A0E0B2E0E0E1F4E700E00BBF1C
:100EC00002C007900D92A236B107D9F728E0A2E63A
:100ED000B3E001C01D92AC3AB207E1F717E0C1E5FB
:100EE000D7E000E006C021970109802FFE010E9493
:100EF000E439C035D10780E00807A9F70E943035F2
:100F00000C9499380C940000EF92FF920F931F936A
:100F1000DC011A960D911C911B9718962D913C910E
:100F20001997ED91FC91048CF58DE02D7B0140E04B
:100F300050E060E070E019951F910F91FF90EF90E5
:100F40000895EF92FF920F931F9360916703709142
:100F5000680380E4E82EFF24F39404EA11E020E023
:100F600030E040E050E080916503909166030E947C
:100F70005F271F910F91FF90EF90089510921B082B
:100F800010921A084FE0489F9001499F300D11249C
:100F900030931D0820931C0820916D0330916E033F
:100FA0008217930759F410921F0810921E082FEF12
:100FB0003FEF30932108209320080AC02FEF3FEF26
:100FC00030931F0820931E081092210810922008C9
:100FD000880F991FFC01ED5BFD4F608171818EE0F0
:100FE00098E00E943C268EE098E00C942026EF9238
:100FF000FF920F931F934091690350916A034450ED
:10100000510960916B0370916C0364507109E12C7C
:1010100088EFF82E09E010E029E030E08EE098E05B
:101020000E94AC101F910F91FF90EF900895CF9206
:10103000DF92EF92FF920F931F93CF93DF9300D035
:10104000CDB7DEB760E080E090E00E949B2C883056
:1010500024E5920709F453C7803264E5960709F442
:1010600051C78938994809F450C760E087E690E095
:101070000E949B2C8734974409F44AC781EA90E088
:101080000E94DC2D613081E6780709F444C76F3F88
:101090007F4F19F406E215E1B9C08FEB90E00E9492
:1010A000AA2D673523E8720709F438C7613884E947
:1010B000780709F436C7613195E1790709F434C737
:1010C000603225E1720709F432C7663285E178079C
:1010D00009F3613895E1790709F42CC7611574416A
:1010E00009F42BC784ED90E00E94DC2D603173453C
:1010F00009F426C787ED90E00E94DC2D613370482B
:1011000009F421C78FEE90E00E94AA2D673273493F
:1011100009F41CC78EEF90E00E94DC2DBB27A92F9D
:10112000982F872F8335904209F413C784E090E00D
:101130000E94DC2D9B01811126C0211570E8370724
:1011400011F58091400290914102A0914202898361
:101150009A83AB83AE014F5F5F4F63E089EB90E012
:101160000E94091860E080ED90E00E949B2C893974
:1011700029F08039D9F490E980E902C099E980E04A
:10118000092F182F43C0263285E1380709F482CF92
:10119000203F99E8390709F4DFC6223565E83607AC
:1011A00009F4DDC621313C4A09F4DCC683ED90E048
:1011B0000E94DC2DBB27A92F982F872F83369149BA
:1011C00009F4D3C683ED90E00E94DC2DCB013DE60F
:1011D000370F3230A8F0783999F0773789F07631C7
:1011E00079F0633D710509F4C3C6833D934D09F45D
:1011F00098C660E080E090E00E949B2C8C0101C0CA
:101200008B01033D73ED170709F48BC60E94502C28
:10121000109229081092280810932D0800932C088A
:10122000073583E8180709F499C108F0A5C003350C
:1012300020E2120709F4F3C108F047C0013175E15B
:10124000170709F42CC1B0F40939110509F49EC13E
:1012500038F40130110509F04DC280E091E1B0C1D0
:10126000043591E0190709F40FC10530154109F45F
:10127000A5C140C2063265E1160709F428C180F411
:101280000032154109F036C283E194E090932B08B7
:1012900080932A0866E0E62EF12C0BE813E030C2BA
:1012A000013895E1190709F4CFC10230164109F060
:1012B00021C283E094E090932B0880932A08B6E043
:1012C000EB2EF12C04EE12E01BC2043168E6160787
:1012D00009F421C108F5003183E5180709F403C1B9
:1012E00078F40533154409F005C280E090E190934D
:1012F0002B0880932A086CE970E088E397E0E4C14A
:10130000083064E5160709F459C10930184609F098
:10131000F1C182E091E162C1033987E7180709F45E
:10132000D6C1A8F4033827E7120709F40CC109381D
:10133000174709F0DFC183E194E090932B08809375
:101340002A0821E4E22EF12C09E313E0D9C1063981
:1013500077E7170709F493C10133104809F0CAC1B0
:1013600083E194E190932B0880932A0892E1E92E7F
:10137000F12C07E213E0C4C1083393E9190709F41B
:1013800054C170F5073263E9160709F430C1B8F4A7
:10139000023083E9180709F445C138F400391049CF
:1013A00009F0A8C183E194E1DBC0003263E91607CC
:1013B00009F404C10532134909F40BC19BC1093278
:1013C00083E9180709F434C108F403C1013323E9A0
:1013D000120709F401C10533134909F4FDC08AC19C
:1013E000093874E91707C8F5073884E9180708F0C1
:1013F00049C1013894E9190709F429C190F400544E
:1014000013490230110508F075C183E194E090930F
:101410002B0880932A08F5E6EF2EF12C0CE712E05A
:101420006FC10638144909F065C183E094E09093D8
:101430002B0880932A0880EE91E090931508809302
:10144000140880E491E090931308809312087BE3E2
:10145000E72EF12C0CEF11E053C1053075EB1707A7
:1014600009F428C138F401311C4A09F043C183E171
:1014700094E1E0C0093025EB120709F428C10530DA
:10148000154C09F417C136C182E090E190932B0806
:1014900080932A086CE970E084ED97E015C183E041
:1014A00090E090932B0880932A0880EE91E090932F
:1014B00015088093140880E491E0909313088093BA
:1014C000120873E0E72EF12C01E913E019C183E162
:1014D00094E090932B0880932A085CE0E52EF12C91
:1014E0000FE713E00DC183E19EE090932B088093FA
:1014F0002A0880EE91E0909315088093140880E408
:1015000091E0909313088093120842E0E42EF12CAE
:101510000DE713E0F5C083E094E090932B088093EF
:101520002A0880EE91E0909315088093140880E4D7
:1015300091E0909313088093120833E0E32EF12C8E
:101540000AE713E0DDC082E091E190932B088093DD
:101550002A0860E970E088EA96E0B6C083E094E18A
:1015600090932B0880932A0880EE91E090931508C1
:101570008093140880E491E09093130880931208FC
:1015800082E0E82EF12C05E213E0BAC083E194E199
:1015900090932B0880932A0880EE91E09093150891
:1015A0008093140880E491E09093130880931208CC
:1015B0000DE1E02EF12C08E013E0A2C084E090E100
:1015C00090932B0880932A0868ED70E080ED95E0F9
:1015D0007BC080E091E102C080E090E190932B0815
:1015E00080932A086CEC70E084E095E06DC083E0A5
:1015F00094E090932B0880932A0880E991E09093DF
:1016000015088093140880EF90E09093130880935E
:1016100012081EE1E12EF12C0AEE12E071C087E102
:1016200094E108C083E094E005C083E194E002C047
:1016300083E096E190932B0880932A08A3E0EA2E9A
:10164000F12C01EE12E05CC083E194E002C087E07F
:1016500094E090932B0880932A0880EE91E0909379
:1016600015088093140880E491E090931308809308
:101670001208E5E4EE2EF12C07E312E041C083E00E
:1016800094E002C083E194E090932B0880932A08B1
:1016900080EE91E0909315088093140880E491E027
:1016A00090931308809312086BE2E62EF12C01ED63
:1016B00011E026C088E090E190932B0880932A08DF
:1016C00060EB70E084E594E00E94991717C080E019
:1016D00090E190932B0880932A0860EC70E084E9F5
:1016E00093E00E94991780E991E090931508809308
:1016F000140804C0109213081092120800E010E0C1
:1017000020912B08822F82958F7090E0817099270D
:1017100090932F0880932E080115110581F069E040
:1017200070E088EC91E00E94BD17B701C8010E94EB
:10173000BD1766E070E082EC91E00E94BD1760E0AA
:101740008EE098E00E94F11B60E08EE098E00E943D
:101750003C1080912C0890912D088838944909F00C
:1017600064C210927C0320EE3FEF40E050E060E066
:1017700070E08EE098E00E94221BE0903808F09024
:10178000390880917803811107C080912A0880FF71
:1017900003C05EE2E52EF12C80912C0890912D087B
:1017A0008230964119F44EE2E42EF12C00E010E074
:1017B00020E030E040E050E060E070E08EE098E053
:1017C0000E94531A80912A0880FD10C060E070E0EA
:1017D00080913408909135080E94601960E070E0B3
:1017E00080913608909137080E9460198B988A98EA
:1017F00080910201877880930201A5988EB1877C41
:101800008EB9409102018F2D99279C0123703327B7
:1018100055E0220F331F5A95E1F7242B2093020144
:101820004EB19C012C703327220F331F220F331F20
:10183000242B2EB944B39C0120713327220F331F70
:10184000242B24BB4EB19C0120723327359527955C
:1018500035952795242B2EB920910201807C99275C
:10186000F3E095958795FA95E1F7822B8093020135
:101870008998899A80910201877880930201A598BE
:101880008EB1877C8EB920910201C70183709927A0
:10189000A5E0880F991FAA95E1F7822B809302019A
:1018A0002EB1C7018C709927880F991F880F991F37
:1018B000822B8EB924B3C70180719927880F991F95
:1018C000822B84BB2EB1C70180729927959587958D
:1018D00095958795822B8EB920910201C701807C56
:1018E000992733E0959587953A95E1F7822B809378
:1018F00002018998899A8A9A809101018778809358
:1019000001019D988DB1877C8DB940912A08509135
:101910002B0880912C0890912D0846FD1EC0889AB6
:10192000889888988898209100012CB122B32CB116
:1019300020910001889A40FD10C0893862E1960725
:1019400061F0889A889888988898209100012CB135
:1019500022B32CB120910001889A8131954161F424
:10196000889A889888988898809100018CB182B371
:101970008CB180910001889AFA01E470FF27889A5F
:1019800088988898889844FF8CC0609100018CB139
:1019900092B37CB1309100016076262F2295269576
:1019A0002770807386958695682F622B9072892F99
:1019B00090E095958795862B672F6870660F660F68
:1019C000862B632F687198E0699FB0011124682B02
:1019D000889A889A889888988898809100012CB174
:1019E00092B37CB1A09100018076382F3295369564
:1019F0003770207326952695822F832B9072292F7E
:101A000030E035952795282B872F8870880F880F11
:101A1000282B8A2F887178E0879F70011124822FEC
:101A20008E29889A889A8898889888987091000159
:101A3000ACB132B32CB1909100017076B72FB29552
:101A4000B695B770A073A695A6957A2F7B2B3072AA
:101A5000A32FB0E0B595A795A72B2870220F220FD2
:101A6000A22B987178E0979F900111242A2B889AD5
:101A70008C7FEF2B59F0287F98E0899F700111240B
:101A8000F22A669566956695E62A7CC0687F78E0BE
:101A9000879F70011124F62A269526952695E22A1D
:101AA00071C0D09000018CB192B3BCB1A091000183
:101AB000889A889A889888988898309100012CB1E3
:101AC00002B36CB1C09000013076E32EF12C15E02A
:101AD000F594E7941A95E1F7207330E03595279552
:101AE00035952795E22AF32A007210E0159507959F
:101AF000E02AF12A687070E0660F771F660F771F83
:101B00009701262B372B6C2D687178E0679F700149
:101B10001124E22AF32A889A2D2D2076322F32952D
:101B200036953770807386958695282F232B907273
:101B3000892F90E095958795822BB870BB0FBB0FCE
:101B40008B2B2A2F287198E0299F90011124822B3A
:101B5000F82A43FF03C0FE24EF24FE24EF2B91F06C
:101B60009701207E3770C701892F99278695869522
:101B70008695822B932BFE2CEE24FF0CFF0CFF0C82
:101B8000E82AF92A80917C03882399F09701207C28
:101B9000C7018827947065E0969587956A95E1F767
:101BA0006FE3E622FF24F694E794E82AF92AE22A72
:101BB000F32A889A8B9A80910101886780930101AA
:101BC0009D9A8DB188638DB940FD14C000911808AD
:101BD0001091190801501109209116083091170829
:101BE0002150310940E050E060E070E08EE098E084
:101BF0000E94531A7FE1E7167FEFF706B1F486E003
:101C00008983AE014F5F5F4F61E08AE390E00E94FD
:101C1000091880912A0890912B088F7E90932B08A9
:101C200080932A0881E080937C0310928D051092A6
:101C30008B05109288051092870510928E058AE018
:101C4000809386058FEF8093640380936303809372
:101C500062030E9453278B0161E0809186050E94F8
:101C6000F12682E895E00E94193060E08CE00E9445
:101C7000F12661E08BE00E94F12661E08DE00E9498
:101C8000F1265AE0F52E8FEF0E943312FA94F110EC
:101C9000FACF60E0809186050E94C22620E030E005
:101CA000A90160E082E895E00E943830F82E809328
:101CB0008C0581E0F81649F00E945327601B710BD8
:101CC000613D774058F381E056C02AEA31E040E0B8
:101CD00050E068E082E895E00E94383082FF03C05F
:101CE000F0928D0510C044E0F42E0E9446128093BD
:101CF0008C05FA94F110F9CF8A3A11F082E03BC0DA
:101D000082E080938D0580918D05823021F0C12C79
:101D1000D12C760105C0C12CD12CE12C30E4F32E5E
:101D200020E030E0A90167E382E895E00E943830C6
:101D3000A701960169E282E895E00E94383080931D
:101D40008C05882349F00E945327601B710B613D6D
:101D5000774030F388E00FC080918D05823001F527
:101D600020E030E0A9016AE382E895E00E94383083
:101D7000882341F086E08093870582E895E00E9401
:101D80001930BCC00E944612807C803C19F483E06C
:101D900080938D050E9446120E9446120E944612B0
:101DA00082E895E00E94193081E00E94222B88236E
:101DB00029F08091B205882339F0A0C080E00E940C
:101DC000222B8111F6CF9AC08091A605803109F5AA
:101DD00082E08093B2051092C4051092C50510925E
:101DE000C6051092C7058091A7059091A805A0E0AF
:101DF000B0E025E0880F991FAA1FBB1F2A95D1F7D5
:101E00008093C0059093C105A093C205B093C3050C
:101E10001FC0803209F072C083E08093B205409108
:101E2000A9055091AA056091AB057091AC0540934E
:101E3000C4055093C5056093C6057093C70520EC93
:101E400035E08FE895E00E949133882309F456C06D
:101E50008FE895E09093C9058093C80581E0809351
:101E6000B1051092B3051092B4051092B505109209
:101E7000B6051092B7051092B8051092B9051092E8
:101E8000BA051092BB051092BC051092BD051092C8
:101E9000BE051092BF0561E08EE098E00E94F11B44
:101EA00060E070E08EE098E00E9484078EE293E0AC
:101EB000909366038093650380E693E090936803B4
:101EC000809367030E94A10782ED90E090936C03DA
:101ED00080936B0380EA90E090936A038093690398
:101EE0000E94F7070F900F900F90DF91CF911F91F5
:101EF0000F91FF90EF90DF90CF900895FFCF08E013
:101F000014E584C900E214E581C909E812E17EC93B
:101F100007E413E87BC903E619E178C907E513E88C
:101F200075C901E814E972C901E115E16FC900E260
:101F300015E16CC901E815E169C904E118E666C953
:101F400000E113E563C901E310E860C907E213E9A2
:101F50005DC903E510E25AC905E317E757C909E867
:101F600017E754C901E11CEA51C903E611E94EC95A
:101F700003ED10E04BC91F920F920FB60F92112480
:101F80002F933F938F939F93AF93BF938091700351
:101F900090917103A0917203B091730330916F031C
:101FA00023E0230F2D3720F40196A11DB11D05C09C
:101FB00026E8230F0296A11DB11D20936F03809385
:101FC000700390937103A0937203B0937303809195
:101FD000740390917503A0917603B09177030196F5
:101FE000A11DB11D8093740390937503A093760394
:101FF000B0937703BF91AF919F918F913F912F91B4
:102000000F900FBE0F901F901895DC015996ED911F
:10201000FC915A973097B9F083899489A589B6893C
:102020004285538564857585841B950BA60BB70B7C
:10203000811520E89207A105B10538F08FEF9FE7E1
:10204000A0E0B0E0089580E090E00895CF93DF93A2
:102050001F92CDB7DEB76983DC01ED91FC91028060
:10206000F381E02D41E050E0BE016F5F7F4F199595
:102070000F90DF91CF910895CF93DF931F92CDB74B
:10208000DEB7FC01848D958D292F22952F7030E0CD
:1020900021703327A9014627BA0171A360A380FFED
:1020A0002DC0809178038823E1F0868D978D873449
:1020B00053E8950719F08235924531F4672B11F4F6
:1020C00082E007C086E005C0672B11F48AE001C0FA
:1020D00088E08983AE014F5F5F4F61E081E090E06F
:1020E0000AC0672B19F480E290E002C081E290E020
:1020F00040E050E060E00E9409182AC0868D978D6C
:10210000833947E79407E1F040F4843521E09207F2
:1021100079F080329445C1F413C0863253E99507B3
:1021200079F0893025EB920759F08532924961F4B4
:10213000660F771F660F771F636187E090E006C028
:10214000626081E094E002C081E690E00E94601944
:102150000F90DF91CF910895AF92BF92CF92DF920F
:10216000EF92FF920F931F93CF93DF93EC01809137
:102170007C03882349F0C7018F719927880F991F25
:10218000E1ECEE22E82AF92A37FF05C0620F731F3F
:10219000319521953109260F371F77FF02C060E086
:1021A00070E0E885F9852E173F070CF4F9015F010F
:1021B000A61AB70A17FF05C0400F511F11950195C8
:1021C0001109CA01800F911F57FF02C040E050E083
:1021D0000A851B85801791070CF48C016801C41ACD
:1021E000D50A015011099F0121503109CE010E94E9
:1021F000531A8B988A988AA59BA52091020127786B
:1022000020930201A5982EB1277C2EB9609102017E
:10221000292F3327A9014370552705E0440F551F87
:102220000A95E1F7462B409302016EB1A9014C706B
:102230005527440F551F440F551F462B4EB964B305
:10224000A90140715527440F551F462B44BB6EB161
:10225000A901407255275595479555954795462BA9
:102260004EB940910201207C3327A3E03595279594
:10227000AA95E1F7242B209302018998899A20914D
:102280000201277820930201A5982EB1277C2EB950
:10229000409102019C0123703327B5E0220F331FC8
:1022A000BA95E1F7242B209302014EB19C012C70CA
:1022B0003327220F331F220F331F242B2EB944B391
:1022C0009C0120713327220F331F242B24BB4EB1D6
:1022D0009C01207233273595279535952795242B1A
:1022E0002EB920910201807C992763E0959587950E
:1022F0006A95E1F7822B809302018998899A8A9ADC
:10230000AC14BD042CF49A2D8B2D5601C92ED82E59
:102310008F2D99279C01237033272295220F207E31
:10232000AC014C705527342F330F330FAC01407183
:102330005527440FBC017695679576956795562F7E
:10234000587063E0969587956A95E1F78871B701B3
:1023500063707727962F9295990F907EB7016C70D6
:102360007727660F660FF701E071FF277E2F770F43
:10237000D701B695A795B695A795A870F701B3E0D4
:10238000F695E795BA95E1F71E2F18711C141D04F8
:102390000CF043C0F501B0910201B778B09302018F
:1023A000A598BEB1B77CBEB9B0910201B22BB09373
:1023B0000201BEB1B32BBEB9B4B3B42BB4BBBEB132
:1023C000B52BBEB9B0910201B82BB0930201899828
:1023D000899AB0910201B778B0930201A598BEB175
:1023E000B77CBEB9B0910201B92BB0930201BEB166
:1023F000B62BBEB9B4B3B72BB4BBBEB1BA2BBEB902
:10240000B0910201B12BB09302018998899A31975A
:1024100011F6E1E0CE1AD108B9CF8B9A8C8D80FFEE
:1024200008C08E8D9F8D8632954191F48D8980FFF5
:102430000FC00A851B850150110928853985215057
:10244000310940E050E060E070E0CE010E94531A94
:10245000DF91CF911F910F91FF90EF90DF90CF9080
:10246000BF90AF900895F89498E02F9887FF02C02E
:102470002D9A01C02D98880F2F9A9150B1F7000026
:102480000000000000002F9878940895F8942D9A89
:1024900098E080E02F9A00000000880F1E9981606C
:1024A0002F989150B9F778940895CF93DF93EC016A
:1024B0008D81882379F18C8187FF28C06E857F8587
:1024C0008889998941E00E94EF31882319F1EA89CE
:1024D00080E2E89FF0011124EE57FC4F3097D1F0D5
:1024E0008D81823040F48B899C89AD89BE89848F2F
:1024F000958FA68FB78F8F89988DA98DBA8D938F61
:10250000828FB58BA48B8C818F778C83DF91CF9159
:102510000C94B43180E0DF91CF910895FC01818D5E
:10252000928D009711F00C94551208958F929F92FE
:10253000AF92BF92CF92DF92EF92FF920F931F93D1
:10254000CF93DF93EC018D81811102C080E078C0D0
:102550000B891C892D893E89041715072607370723
:10256000A8F36A017B01823029F4CA86DB86EC86F7
:10257000FD860DC0C114D104E104F10451F41E82A2
:102580001F82188619861A861B861C861D8681E086
:1025900057C08A849B84AC84BD84EB8DFC8D2585DB
:1025A00030E0275F3F4FB501A40141505109610957
:1025B0007109022E04C076956795579547950A9440
:1025C000D2F7D701C6010197A109B10904C0B69598
:1025D000A795979587952A95D2F784179507A6070B
:1025E000B70720F089288A288B2871F44F89588DE5
:1025F000698D7A8D4E835F83688779874C015D0191
:102600008E010A5F1F4F16C0841B950BA60BB70BDC
:10261000F5CF4E815F816885798598018B8D9C8D82
:102620000E94D93291E0891A9108A108B108882343
:1026300009F48CCF81149104A104B10451F795CF12
:10264000DF91CF911F910F91FF90EF90DF90CF908E
:10265000BF90AF909F908F9008952F923F924F928E
:102660005F926F927F928F929F92AF92BF92CF9222
:10267000DF92EF92FF920F931F93CF93DF93EC01C2
:102680006B014A018D81811103C08FEF9FEFD7C08D
:102690008C8180FFFACF4B885C886D887E884A8564
:1026A0005B856C857D85C401A0E0B0E0930182016B
:1026B000041B150B260B370B081719072A073B07B6
:1026C00018F44201841A950A54011E0126E0220ED4
:1026D000311CA114B10409F47EC04A855B856C8568
:1026E0007D852A0181E05822ED818B8D9C8D8A01A8
:1026F0009B01F9E03695279517950795FA95D1F73F
:10270000E23061F4FC01828D938DA48DB58DBC0106
:10271000CD01600F711F821F931F3FC0FC017480A9
:102720007A94702241145104C9F4711017C0452BDA
:10273000462B472B49F48F89988DA98DBA8D8E83AE
:102740009F83A887B9870AC04E815F816885798594
:1027500091010E94D932882309F497CFEB8DFC8D2B
:102760008E819F81A885B9850297A109B109058449
:1027700004C0880F991FAA1FBB1F0A94D2F7468571
:10278000578560897189840F951FA61FB71FBC01EB
:10279000CD01670D711D811D911D20E032E02419CE
:1027A000350935012A153B0508F439012C8126FD30
:1027B00004C06114F2E07F0681F4009136021091AA
:1027C0003702209138023091390260177107820771
:1027D0009307B1F402C0C40132C040E00E94EF315F
:1027E000882309F452CFF201EE57FC4FD601CF01F6
:1027F000860D971D8E179F0789F021912D93FACF93
:10280000760183019201AB01BC0180917A03909122
:102810007B030E948830882309F437CFC60CD71C6D
:102820008A859B85AC85BD85860D971DA11DB11D33
:102830008A879B87AC87BD87A618B7084ACFDF91E8
:10284000CF911F910F91FF90EF90DF90CF90BF90AD
:10285000AF909F908F907F906F905F904F903F9040
:102860002F900895CF93DF93EC010E945512882397
:1028700011F01D8281E0DF91CF9108953F924F9238
:102880005F926F927F928F929F92AF92BF92CF9200
:10289000DF92EF92FF920F931F93CF93DF93CDB709
:1028A000DEB72C970FB6F894DEBF0FBECDBF5C012C
:1028B000DC015B968D909C905C971696CD90DD9098
:1028C000ED90FC901997C114D104E104F10439F0A2
:1028D000BFEFCB1ADB0AEB0AFB0A312C07C0F4016D
:1028E000C080D180E280F38033243394F401818569
:1028F0009285A385B4859C01AD012F5F3F4F4F4F5B
:102900005F4F29873A874B875C87260137011D82F5
:102910001E821F821886F40181859285A385B48565
:102920002D813E814F815885281739074A075B075B
:1029300008F063C089859A85AB85BC858C159D059B
:10294000AE05BF0550F482E0C82ED12CE12CF12C4D
:1029500092E0492E512C612C712C9E012F5F3F4F2C
:10296000B701A601C4010E94D932882309F445C0E9
:1029700089819A81AB81BC81892B8A2B8B2B41F079
:10298000260137019FEF491A590A690A790A05C0D9
:10299000C414D504E604F70491F02D813E814F81E3
:1029A00058852F5F3F4F4F4F5F4F2D833E834F839F
:1029B00058873FEFC31AD30AE30AF30AACCF0FEFED
:1029C0001FEF2FEF3FE0B301A201C4010E94383294
:1029D000882399F0D50116964D915D916D917C916A
:1029E0001997411551056105710549F0930182015F
:1029F000C4010E943832811102C080E02AC0D50192
:102A000016964D925D926D927C921997332051F0FB
:102A1000D301C2010196A11DB11DF40180839183F0
:102A2000A283B383F5018789908DA18DB28D892B07
:102A30008A2B8B2B69F4D50157964D925D926D923E
:102A40007C925A9714968C911497806814968C9364
:102A500081E02C960FB6F894DEBF0FBECDBFDF919C
:102A6000CF911F910F91FF90EF90DF90CF90BF908B
:102A7000AF909F908F907F906F905F904F903F901E
:102A800008952F923F924F925F926F927F928F9212
:102A90009F92AF92BF92CF92DF92EF92FF920F93ED
:102AA0001F93CF93DF9300D01F92CDB7DEB78C0179
:102AB0005B011A01DC0115968C9115978130C9F4E0
:102AC00014968C9181FF15C082FF1DC0F8014389C7
:102AD00054896589768982859385A485B58584170F
:102AE0009507A607B70779F0C8010E9496128111D1
:102AF0000AC081E090E0D80113969C938E931297C0
:102B000080E090E036C1610183C05B968D919C911D
:102B10005C97FC0174802FEF270D2A013B0139E0FF
:102B200076946794579447943A95D1F7722E74200F
:102B30007A01F1E0FF22772009F476C080E092E08C
:102B40008E199F0946018C159D0508F44C01D8018A
:102B50005B962D913C915C9716968D919D910D9071
:102B6000BC91A02D0297A109B109F901058404C007
:102B7000880F991FAA1FBB1F0A94D2F74685578555
:102B800060897189840F951FA61FB71F9C01AD0135
:102B9000270D311D411D511D29013A01811432E0DB
:102BA000930609F088C08091360290913702A09177
:102BB0003802B0913902481659066A067B0659F464
:102BC0008FEF9FEFDC018093360290933702A09342
:102BD0003802B09339029501B301A20180917A03C2
:102BE00090917B030E941C31882309F482CF9EEFD1
:102BF000B91AC818D908F80182859385A485B585C6
:102C0000880D991DA11DB11D82879387A487B58763
:102C1000D8011A964D915D916D917C911D97C114CB
:102C2000D10409F072CF87C0E114F10409F086CF16
:102C300016964D915D916D917C91199741155105B5
:102C40006105710559F457968D919D910D90BC9138
:102C5000A02D0097A105B10541F521C09E012F5F70
:102C60003F4F0E94D932882309F44BCF89819A8142
:102C7000AB81BC81F801238D348DF9012789203186
:102C800029F048EF5FEF6FEF7FE004C048EF5FEFA0
:102C900060E070E084179507A607B70730F0C80119
:102CA0000E943E1481114ACF24CFF8018683978376
:102CB000A087B18743CFE114F10429F5D8011A9612
:102CC0004D915D916D917C911D9753968D919D9144
:102CD0000D90BC91A02D481759076A077B0798F003
:102CE0000E94B431882309F404CF409236025092F6
:102CF00037026092380270923902809181038160BC
:102D00008093810308C041E0C301B2010E94EF310A
:102D1000882309F4EECED501F701EE57FC4F9F0151
:102D2000280D391D2E173F0719F08D918193FACF89
:102D3000A80CB91C5ECFF80183899489A589B6894E
:102D400084179507A607B70738F4438B548B658B18
:102D5000768B848180688483F801848183FD02C03E
:102D6000C10107C0C8010E945512882309F4C1CED1
:102D7000F7CF0F900F900F900F90DF91CF911F9191
:102D80000F91FF90EF90DF90CF90BF90AF909F900A
:102D90008F907F906F905F904F903F902F9008950D
:102DA000CF93DF931F92CDB7DEB7698341E050E048
:102DB000BE016F5F7F4F0E9441150F90DF91CF9151
:102DC0000895CF93DF93EC01898D9A8D009739F4A4
:102DD00081E090E09B838A8380E090E00BC0FC015F
:102DE000138212820E944115E98DFA8D228133816E
:102DF000232B71F7DF91CF910895CF93DF931F922B
:102E0000CDB7DEB741E050E0BE016F5F7F4F0E945B
:102E10002D13019719F4898190E002C08FEF9FEF85
:102E20000F90DF91CF910895FC01818D928D0097D5
:102E300011F00C94FD168FEF9FEF08950F931F93E1
:102E4000CF93DF93FC01818D928D0097B9F0EF0154
:102E50000E94FD168C010F3F8FEF180791F0898DAE
:102E60009A8DFC01428553856485758541505109D1
:102E7000610971090E949612C80105C080E090E0C6
:102E800002C08FEF9FEFDF91CF911F910F910895B7
:102E9000FC01DB0112968D919C91139793838283A1
:102EA00083E892E09183808314968C9114978483B5
:102EB00015968C911597858316964D915D916D9120
:102EC0007C91199746835783608771871A964D9135
:102ED0005D916D917C911D974287538764877587BB
:102EE0001E964D915D916D917C91519746875787C4
:102EF000608B718B52968C915297828B53964D9129
:102F00005D916D917C915697438B548B658B768B3D
:102F100057964D915D916D917C915A97478B508F4B
:102F2000618F728F5B968D919C915C97948F838F4C
:102F300008950F931F93CF93DF93EC018B0110162D
:102F40001106B4F4FE01859194912496FE01329706
:102F5000659174918F3F2FEF920729F480E090E004
:102F60000E942D2702C00E94601904501109E7CF6A
:102F7000DF91CF911F910F910895DF92EF92FF9211
:102F80000F931F93CF93DF93CDB7DEB768970FB63C
:102F9000F894DEBF0FBECDBF7C018B011016110669
:102FA00054F5F70184913196D490F2E0EF0EF11CC4
:102FB0008F3741F46D2D70E080E090E00E942D2766
:102FC000D12C13C02E2DDE011196F701AD019E2FDD
:102FD000921B9D1520F494919D933196F8CFED0CA2
:102FE000F11C6D2D90E00E940918ED2DF0E0329655
:102FF0000E1B1F0BD3CF68960FB6F894DEBF0FBE23
:10300000CDBFDF91CF911F910F91FF90EF90DF9097
:1030100008958B988A9820910201277820930201C5
:10302000A5982EB1277C2EB970910201292F332744
:10303000F901E370FF27A5E0EE0FFF1FAA95E1F766
:10304000E72BE09302017EB1F901EC70FF27EE0F50
:10305000FF1FEE0FFF1FE72BEEB974B3F901E0710C
:10306000FF27EE0FFF1FE72BE4BB7EB1F901E072F3
:10307000FF27F595E795F595E795E72BEEB9709164
:103080000201207C3327E3E035952795EA95E1F7A7
:10309000272B209302018998899A20910201277891
:1030A00020930201A5982EB1277C2EB970910201C0
:1030B0009C0123703327F5E0220F331FFA95E1F7C7
:1030C000272B209302017EB19C012C703327220F05
:1030D000331F220F331F272B2EB974B39C0120718D
:1030E0003327220F331F272B24BB7EB19C01207274
:1030F00033273595279535952795272B2EB9709130
:1031000002019C01207C3327F3E035952795FA9541
:10311000E1F7272B209302018998899A8A9AFA016C
:10312000A09178037FEF760F16160CF0C7C021919F
:1031300030910201377830930201A5983EB1377C77
:103140003EB960910201322F3370B0E23B9FA00183
:103150001124462B409302016EB1322F3C70B4E033
:103160003B9FA0011124462B4EB944B3322F30713E
:10317000330F342B34BB6EB1322F3072432F50E0FB
:103180005595479555954795462B4EB93091020177
:10319000207C269526952695232B2093020189983D
:1031A000899A711102C0672FBDCFAA23E1F301965E
:1031B0008A9820910201277820930201A5982EB1C8
:1031C000277C2EB960910201292F3327A901437072
:1031D0005527B5E0440F551FBA95E1F7462B4093AC
:1031E00002016EB1A9014C705527440F551F440FC1
:1031F000551F462B4EB964B3A90140715527440FA2
:10320000551F462B44BB6EB1A901407255275595F9
:10321000479555954795462B4EB940910201207C24
:10322000332753E0359527955A95E1F7242B2093C2
:1032300002018998899A209102012778209302013E
:10324000A5982EB1277C2EB9409102019C012370D4
:10325000332765E0220F331F6A95E1F7242B209373
:1032600002014EB19C012C703327220F331F220F15
:10327000331F242B2EB944B39C0120713327220F16
:10328000331F242B24BB4EB19C012072332735956C
:10329000279535952795242B2EB9409102019C0145
:1032A000207C3327B3E035952795BA95E1F7242B99
:1032B000209302018998899A8A9A75CF8B9A0895EA
:1032C0008B988A98E2E0F1E0208127782083A59806
:1032D0002EB1277C2EB9A081292F3327A901437055
:1032E0005527B5E0440F551FBA95E1F74A2B4083A7
:1032F000AEB1A9014C705527440F551F440F551FFF
:103300004A2B4EB9A4B3A90140715527440F551F4C
:103310004A2B44BBAEB1A90140725527559547953C
:10332000559547954A2B4EB94081207C332753E071
:10333000359527955A95E1F7242B20838998899A0A
:10334000208127782083A5982EB1277C2EB9408133
:103350009C0123703327A5E0220F331FAA95E1F7C4
:10336000242B20834EB19C012C703327220F331F56
:10337000220F331F242B2EB944B39C012071332715
:10338000220F331F242B24BB4EB19C012072332704
:103390003595279535952795242B2EB92081807C4E
:1033A0009927B3E095958795BA95E1F7822B8083AD
:1033B0008998899A8A9A808187788083A5988EB126
:1033C000877C8EB94081872F99279C0123703327F2
:1033D00055E0220F331F5A95E1F7242B20834EB17D
:1033E0009C012C703327220F331F220F331F242BF5
:1033F0002EB944B39C0120713327220F331F242B95
:1034000024BB4EB19C012072332735952795359505
:103410002795242B2EB92081807C9927A3E09595B0
:103420008795AA95E1F7822B80838998899A808174
:1034300087788083A5988EB1877C8EB92081CB0157
:1034400083709927B5E0880F991FBA95E1F7822B11
:1034500080832EB1CB018C709927880F991F880F1C
:10346000991F822B8EB924B3CB0180719927880FC5
:10347000991F822B84BB2EB1CB0180729927959521
:10348000879595958795822B8EB98081607C77276B
:10349000A3E075956795AA95E1F7682B60838998F5
:1034A000899A8B9A08958F929F92AF92BF92CF92F2
:1034B000DF92EF92FF920F931F93CF93DF9300D091
:1034C0001F92CDB7DEB77C015B016A014901FC01A7
:1034D000868D978D8732F3E99F0799F4F7018589E7
:1034E000823031F4F0E2CF0ED11C005E1F4F1EC0BF
:1034F0008330E1F420E2A20EB11C80E2880E911C20
:1035000015C08632954191F4F701858980FF0EC080
:10351000C801841B950B19F40F5F1F4F07C062177A
:10352000730721F44B01880E991E8A01F701848DDF
:1035300080FF3BC084A5B982AA829B828C82AE01A7
:103540004F5F5F4F64E090E00E940918F70180A987
:10355000D982CA821B830C83AE014F5F5F4F64E048
:1035600090E00E94091880917803882309F459C0DB
:10357000F701868D978D8536910509F052C0B98285
:10358000AA82AE014F5F5F4F62E086A197A10E94C1
:103590000918D982CA82AE014F5F5F4F62E0F7011E
:1035A00080A591A50E9409183CC0B501F70186A12C
:1035B00097A10E946019B601F70180A591A50E940C
:1035C00060198A149B0419F40C151D0551F1F701BB
:1035D000848D85FF0EC0858980FF06C0102F0027CF
:1035E000C02AD12A860105C0982C8824A828B92889
:1035F0004501B501F70184A595A50E946019B601A2
:10360000F70180A991A90E946019B401F70186A56C
:1036100097A50E946019B801F70182A993A90E9499
:1036200060190F900F900F900F90DF91CF911F9125
:103630000F91FF90EF90DF90CF90BF90AF909F9051
:103640008F900895EF92FF920F931F93CF93DF9384
:103650007C01E90177FDBEC057FDBCC0FC0180853F
:103660009185681779070CF0B5C082859385481756
:1036700059070CF0AFC080917C03882341F0CE0144
:103680008F719927880F991FC17CC82BD92B8A016C
:103690009B01C7010E94531A80917803882309F483
:1036A0008DC08B988A98F70182A593A5209102017D
:1036B000277820930201A5982EB1277C2EB960911E
:1036C0000201292F3327A9014370552775E0440FC4
:1036D000551F7A95E1F7462B409302016EB1A9017F
:1036E0004C705527440F551F440F551F462B4EB99C
:1036F00064B3A90140715527440F551F462B44BBA5
:103700006EB1A90140725527559547955595479536
:10371000462B4EB940910201207C3327B3E035950A
:103720002795BA95E1F7242B209302018998899A6D
:1037300020910201277820930201A5982EB1277CC1
:103740002EB9409102019C012370332715E0220F0E
:10375000331F1A95E1F7242B209302014EB19C01EF
:103760002C703327220F331F220F331F242B2EB927
:1037700044B39C0120713327220F331F242B24BB19
:103780004EB19C01207233273595279535952795A5
:10379000242B2EB920910201807C992773E0959506
:1037A00087957A95E1F7822B809302018998899A0F
:1037B0008A9ACE010E94B9238B9A0CC0BE01F701F0
:1037C00082A593A5DF91CF911F910F91FF90EF906C
:1037D0000C946019DF91CF911F910F91FF90EF90A2
:1037E0000895DF92EF92FF920F931F93CF93DF9391
:1037F000CDB7DEB72A970FB6F894DEBF0FBECDBFA8
:103800007C01862F8370D70155968C935597462F50
:10381000417060FF05C016962D913C91179703C02B
:10382000F70124813581D70119963C932E9318977F
:10383000442329F014962D913C91159703C0F7016C
:1038400026813781D7011B963C932E931A9782309D
:1038500041F0833041F0813011F088E405C088E206
:1038600003C088E901C088EF8A87F701248D358D70
:1038700030FF03C08A8580588A8731FF04C09A854B
:1038800080E489278A8733FF04C09A8588E08927E6
:103890008A87D7015E968D919C915F9720FFD5C056
:1038A000109178038431B8E69B07F9F49A85892F43
:1038B000881F8827881F8295880F880F807C96FD37
:1038C00002C020E001C020E298729A871F828260C5
:1038D000822B88878BE38987AE01495F5F4F63E066
:1038E00086EB90E00E94091889C08336E9E19E07C3
:1038F00041F08138F4E99F0721F0813125E19207F9
:1039000009F52A8527FF02C021602A872A8526FF1C
:1039100002C022602A87833639E1930719F48A8529
:103920008F730EC0813844E9940719F48A858F7229
:1039300007C08131954109F061C08A858F7E806C16
:103940008A875CC0112309F459C062E070E0F70176
:1039500077A366A326E030E031A720A7E2E2F0E0FB
:10396000D7019B96FC93EE939A979D967C936E93CA
:103970009C9764E070E09F967C936E939E97D1969F
:103980003C932E93D09728E030E0D3963C932E932F
:10399000D2978536910521F58A85982F916084FD0F
:1039A00002C09A8703C083ED89278A87442351F098
:1039B00082E890E0F70197A386A380E890E091A7C2
:1039C00080A732C280E890E0D70197969C938E93AF
:1039D000969782E890E099969C938E93989724C24C
:1039E0008235924501F58A85982F926084FD02C048
:1039F0009A8719C084ED89278A8715C02AE230E0AA
:103A0000F70137A326A38BE290E091A780A74CE2B1
:103A100050E053A742A735A724A737A726A791AB05
:103A200080AB93AB82AB1111FFC186E390E0AE0196
:103A3000465F5F4F61E00E9409188A8590E0D701D8
:103A400093969C938E939297E6C02A858339B7E725
:103A50009B0709F448C050F48435F1E09F0781F0DA
:103A6000803234E5930709F081C03DC0863243E9D6
:103A70009407C9F18930A5EB9A0709F077C033C0E4
:103A800087E390E0F70195A784A786E390E097A7E6
:103A900086A789E390E091AB80AB88E390E093AB9D
:103AA00082AB80E290E097A386A381E290E091A7A9
:103AB00080A782E290E093A782A7822F022E000CBB
:103AC000990B8827990F881F9927982F8827990F76
:103AD00026FD03C060E070E002C060E071E0886233
:103AE000682B792B82C040E052E0D70197965C9317
:103AF0004E93969741E052E099965C934E93989737
:103B000042E052E09B965C934E939A9740E152E0DC
:103B10009D965C934E939C9741E152E09F965C93F7
:103B20004E939E9742E152E0D1965C934E93D0978C
:103B300043E152E0D3965C934E93D29727FD03C0A6
:103B400020E030E002C020E030E88632B3E99B0795
:103B500031F08032944519F060E07AE602C060E00E
:103B600075E3622B732B80E094E035C080E290E037
:103B7000D70197969C938E93969781E290E09996C1
:103B80009C938E93989782E290E09B969C938E9361
:103B90009A9780E590E09D969C938E939C9781E503
:103BA00090E09F969C938E939E9782E590E0D196AD
:103BB0009C938E93D09783E590E0D3969C938E93BD
:103BC000D29727FD03C060E070E002C060E070E8BB
:103BD000776280E690E00E9460198A8586FD03C0C6
:103BE00060E070E002C060E071E081E090E00E947F
:103BF00060198A8585FD03C060E070E002C068E05E
:103C000070E083FD70616063F70173A362A383E0DA
:103C100090E00E946019D70155968C91559780FFCE
:103C200036C05C968D919C915D9792FD30C09696C2
:103C30008D919C91979798962D913C9199979796F5
:103C40003C932E93969799969C938E9398979C96D7
:103C50008D919C919D97D0962D913C91D1979D9659
:103C60003C932E939C97D1969C938E93D0979E963F
:103C70008D919C919F97D2962D913C91D3979F9631
:103C80003C932E939E97D3969C938E93D297F70155
:103C90000285138501501109208531852150310994
:103CA00040E050E060E070E0C7010E94531AD70185
:103CB00016966D917C9117975E968D919C915F976A
:103CC0008732B3E99B0741F4F7012589225022305E
:103CD00018F400E210E002C000E010E08732F3E9DF
:103CE0009F0729F022273327201B310B04C020E235
:103CF00030E0201B310BD7015C964C9140FF45C052
:103D00001982D02E0A837B836C833D832E8310918E
:103D10007803111103C083E390E002C08EE090E0CD
:103D2000AE014F5F5F4F66E00E9409181982DA8288
:103D3000111103C087E390E002C084E190E0AE017E
:103D40004F5F5F4F62E00E940918112389F01982CA
:103D5000F701868D978D8734934819F081E090E0C4
:103D600002C088E190E0AE014F5F5F4F61E00AC0A2
:103D7000D7015C968C9180FF5AC040E050E060E033
:103D800083E190E00E94091852C08339B7E79B078E
:103D900079F160F48032F4E59F0751F1833827E729
:103DA000920781F08435914089F510C0863243E94D
:103DB0009407F1F08930A5EB9A07D1F0853292494A
:103DC00029F504C0F70160A171A124C0600F711F23
:103DD0006150710981E390E00E946019B80182E3AB
:103DE00090E00E94601960E070E083E390E019C009
:103DF000D70190966D917C919197626081E094E0FB
:103E00000E946019B80184E094E00BC0F70160A142
:103E100071A1626081E690E00E946019B8018AE6B3
:103E200090E00E94601903C086E190E000CE2A96DF
:103E30000FB6F894DEBF0FBECDBFDF91CF911F91BB
:103E40000F91FF90EF90DF900895EF92FF920F9304
:103E50001F93DC01ED91FC91048CF58DE02D780130
:103E600001E010E019951F910F91FF90EF900895D8
:103E7000EF92FF920F931F93DC01ED91FC91048C64
:103E8000F58DE02D7801890121E030E019951F9131
:103E90000F91FF90EF9008950895FC016370658B7A
:103EA0008481958126813781613039F0633029F032
:103EB000918780873387228708953187208793876A
:103EC000828708956F927F928F929F92AF92BF9256
:103ED000CF92DF92EF92FF920F931F93CF93DF93D6
:103EE000EC014B015A0169013801E881F981068032
:103EF000F781E02D1995E881F9810684F785E02D99
:103F000087019601A501B401CE011995A501460DC1
:103F1000571D41505109E881F9810684F785E02D4C
:103F20009601B401CE011995E881F9810484F585E3
:103F3000E02D9301A501B401CE011995C80CD91C3F
:103F4000B60161507109E881F9810484F585E02D9D
:103F50009301A501CE011995E881F9810288F389C1
:103F6000E02DCE01DF91CF911F910F91FF90EF9047
:103F7000DF90CF90BF90AF909F908F907F906F9089
:103F800019948F929F92AF92BF92CF92DF92EF924D
:103F9000FF920F931F93CF93DF934C016B015A0154
:103FA000E901DC01ED91FC916217730781F40417BC
:103FB000150724F48B2D5801042F182F0A191B09FB
:103FC00098012F5F3F4F008CF18DE02D12C04017FC
:103FD000510709F52617370724F48D2D6901C62FDF
:103FE000D82F9E012C193D092F5F3F4F028CF38D76
:103FF000E02D8701A501B601C4011995DF91CF918C
:104000001F910F91FF90EF90DF90CF90BF90AF90F6
:104010009F908F9008950680F781E02D1995D40127
:10402000ED91FC910088F189E02D9E01A501B6017A
:10403000C4011995D401ED91FC910288F389E02D1A
:10404000C401DF91CF911F910F91FF90EF90DF900E
:10405000CF90BF90AF909F908F901994EF92FF9266
:104060000F931F93DC011A960D911C911B971896C4
:104070002D913C911997ED91FC91048CF58DE02DDB
:104080007B0140E050E060E070E019951F910F91D6
:10409000FF90EF9008954F925F926F927F928F9270
:1040A0009F92AF92BF92CF92DF92EF92FF920F93C7
:1040B0001F93CF93DF936C012B015A013901480103
:1040C000DC01ED91FC910680F781E02D1995E2016C
:1040D000640C751CD601ED91FC91C615D7055CF4F6
:1040E0000484F585E02D87019401A501BE01C60178
:1040F00019952196EFCF0288F389E02DC601DF9153
:10410000CF911F910F91FF90EF90DF90CF90BF90D4
:10411000AF909F908F907F906F905F904F90199489
:104120008F929F92AF92BF92CF92DF92EF92FF92C7
:104130000F931F93CF93DF93EC015B014A01690159
:10414000E881F9810680F781E02D199595012C0D04
:104150003D1D21503109E881F9810088F189E02D68
:1041600078018401A401B501CE011995E881F98196
:104170000288F389E02DCE01DF91CF911F910F913D
:10418000FF90EF90DF90CF90BF90AF909F908F9077
:1041900019948F929F92AF92BF92CF92DF92EF923B
:1041A000FF920F931F93CF93DF93EC015B014A01C2
:1041B00069017801E881F9810680F781E02D199580
:1041C000C80CD91C860101501109E881F9810088C9
:1041D000F189E02D9501A401B501CE011995E88181
:1041E000F9810288F389E02DCE01DF91CF911F91F3
:1041F0000F91FF90EF90DF90CF90BF90AF909F9086
:104200008F9019940895EF92FF920F931F93DC0102
:10421000ED91FC91048CF58DE02D19951F910F9176
:10422000FF90EF9008950F931F93DC01ED91FC91A7
:10423000028CF38DE02D19951F910F9108950F9326
:104240001F93DC01ED91FC91008CF18DE02D19950F
:104250001F910F910895DC01ED91FC910480F5818F
:10426000E02D19942F923F924F925F926F927F921E
:104270008F929F92AF92BF92CF92DF92EF92FF9276
:104280000F931F93CF93DF9300D000D0CDB7DEB74D
:104290002C017E836D836A015901C801FC82EB8287
:1042A0004801841A950A97FE03C09194819491085D
:1042B00035012D813E81621A730A77FE03C0719425
:1042C00061947108681479045CF43A2D2B2D5C011B
:1042D000832F922F3D812E81DE82CD82C32ED22E5E
:1042E000AD81BE81AA16BB065CF43C2D2D2D6C0160
:1042F000832F922F3D812E81BE82AD82A32EB22EBE
:1043000085012D813E81021B130B1C012C183D08D9
:1043100037FE03C0319421943108780117FF03C0A0
:104320003FEFE31AF30AF594E794C816D9062CF088
:104330008FEF9FEF9A83898304C0A1E0B0E0BA8336
:10434000A9832D813E81A216B30624F1D201ED91FD
:10435000FC910084F185E02D2B813C816814790467
:1043600024F44D815E81B60103C0A6016D817E817A
:10437000C2011995E218F308F7FE06C029813A81B7
:10438000C20ED31EE00EF11E8D819E8101969E838A
:104390008D83D7CF26960FB6F894DEBF0FBECDBF64
:1043A000DF91CF911F910F91FF90EF90DF90CF9011
:1043B000BF90AF909F908F907F906F905F904F9045
:1043C0003F902F9008950F931F93CF93DF93FC019D
:1043D000A685B7858D01005C1F4FE8018881998112
:1043E00001968F739927AD014E5B5F4FEA012881DB
:1043F000398128173907D1F3E80128813981A20FC3
:10440000B31F6C93A685B785A05CBF4F11969C9394
:104410008E93A689B7892C9181E090E0078C02C029
:10442000880F991F0A94E2F7822B8C9381E081A375
:104430000488F589E02D80818064808381E090E0AC
:10444000DF91CF911F910F910895FC0181A18823E5
:1044500029F0A489B5898C9186FFFBCF11A208951C
:10446000FC01A485B585FD01E05CFF4F2081318111
:104470003296808191812817390779F08081918166
:10448000A80FB91F8C91208131812F5F3F4F2F736F
:1044900033273183208390E008958FEF9FEF0895B5
:1044A000DC011C96ED91FC911D97DF01A05CBF4FD4
:1044B0002D913C91119712968D919C9111972817EF
:1044C000390739F08D919C91E80FF91F808190E0B8
:1044D00008958FEF9FEF0895FC0124853585F9013C
:1044E000E05CFF4F80819181329620813181821B77
:1044F000930B8F7399270895FB01E05CFF4F208198
:104500003181DB01AE5BBF4F4D915C912F5F3F4F1F
:104510002F7333274217530741F040815181DB014C
:10452000A40FB51F8C93318320830895CF92DF921F
:10453000EF92FF920F931F93CF93DF936C01EB01E8
:104540007B01E40EF51E00E010E0CE15DF0561F002
:104550006991D601ED91FC910190F081E02DC601A9
:104560001995080F191FF1CFC801DF91CF911F9145
:104570000F91FF90EF90DF90CF9008953FB7F894A0
:104580008091740390917503A0917603B0917703A5
:1045900026B5A89B05C02F3F19F00196A11DB11D9E
:1045A0003FBFBA2FA92F982F8827820F911DA11DD9
:1045B000B11DBC01CD0142E0660F771F881F991F16
:1045C0004A95D1F70895AF92BF92CF92EF92FF92A2
:1045D0000F931F93CF93DF93EC01262F888D998D36
:1045E000009709F040C06A3059F41D861C862C895A
:1045F0008E859F8538E0239F800D911D112441C039
:104600006D3009F4AAC08E898823C1F03C898C855D
:104610009D8546E0349F800D911D11244885598564
:10462000481759075CF41D861C868E859F8548E0D7
:10463000349F800D911D11249F878E87EA88FB8807
:10464000088919894E855F856C857D85CC88CE016A
:104650000E94FF2D2C898C859D8536E0239F800D3F
:10466000911D112442C06A3079F41D861C862C8964
:10467000FC013696E4918E859F852E9F800D911DBD
:1046800011249F878E8769C06D3009F466C0FC01D4
:1046900034963491631708F460C03196E491E617BC
:1046A00008F45BC0FC01329665917491422F50E092
:1046B000431B510937E0349F5001359FB00C112442
:1046C000A60EB71EF501329634913196E49133234C
:1046D00011F0E1110DC0F5013496E4912C898C851F
:1046E0009D85E29F800D911D11249D878C8735C08B
:1046F000F501359644915E89552311F16C89E32FBC
:10470000F0E0E40FF11D47FDFA956E9FD0016F9F19
:10471000B00D11244C855D854A0F5B1FE885F98536
:10472000E417F5076CF41D861C86FC013696E491AF
:104730008E859F856E9F800D911D11249F878E878A
:10474000EA88FB88088919894E855F856C857D8597
:10475000CC88CE010E94FF2DBECF81E090E0DF919A
:10476000CF911F910F91FF90EF90CF90BF90AF909E
:104770000895482F440F440F440FE2E0F1E02081F8
:1047800027782083A5982EB1277C2EB920812083FD
:104790005EB19C012227387F232F3327B9016C702B
:1047A0007727660F771F660F771F652B6EB954B397
:1047B000B90160717727660F771F652B64BB5EB107
:1047C000B901607277277595679575956795652B23
:1047D0006EB95081207C3327B3E035952795BA9583
:1047E000E1F7252B20838998899A208127782083D7
:1047F000A5982EB1277C2EB9208120835EB1807EC2
:10480000977023E0969587952A95E1F79C012C7087
:104810003327220F331F220F331F252B2EB954B3FA
:104820009C0120713327220F331F252B24BB5EB13F
:104830009C01207233273595279535952795252B93
:104840002EB92081807C9927B3E095958795BA95FC
:10485000E1F7822B80838998899A80818778808389
:10486000A5988EB1877C8EB9808180839EB1842F7C
:104870008C70880F880F892B8EB994B3842F807128
:10488000880F892B84BB2EB1942F9072892F90E0D2
:104890009595879595958795822B8EB98081407CDB
:1048A000469546954695482B40838998899A089560
:1048B0001F920F920FB60F9211240BB60F922F93E7
:1048C0003F938F939F93EF93FF9320910C0630912A
:1048D0000D0680910E0690910F062817390731F4C6
:1048E000809131018F7D8093310114C0E0910E06DB
:1048F000F0910F06E453FA4F208180910E069091BB
:104900000F0601968F73992790930F0680930E06DA
:1049100020933601FF91EF919F918F913F912F91BD
:104920000F900BBE0F900FBE0F901F9018951F9207
:104930000F920FB60F9211240BB60F922F933F9345
:104940008F939F93EF93FF93209194063091950658
:1049500080919606909197062817390731F4809137
:10496000D1008F7D8093D10014C0E0919606F09124
:104970009706EC5AF94F2081809196069091970600
:1049800001968F73992790939706809396062093AC
:10499000D600FF91EF919F918F913F912F910F90B2
:1049A0000BBE0F900FBE0F901F9018951F920F9285
:1049B0000FB60F9211240BB60F922F933F938F9344
:1049C0009F93EF93FF9320911C0730911D078091D7
:1049D0001E0790911F072817390731F48091C900ED
:1049E0008F7D8093C90014C0E0911E07F0911F07CE
:1049F000E452F94F208180911E0790911F07019684
:104A00008F73992790931F0780931E072093CE00E2
:104A1000FF91EF919F918F913F912F910F900BBE3E
:104A20000F900FBE0F901F9018951F920F920FB608
:104A30000F9211240BB60F922F933F938F939F9356
:104A4000EF93FF932091A4073091A5078091A607CB
:104A50009091A7072817390731F48091C1008F7D05
:104A60008093C10014C0E091A607F091A707EC590C
:104A7000F84F20818091A6079091A70701968F7328
:104A800099279093A7078093A6072093C600FF91CC
:104A9000EF919F918F913F912F910F900BBE0F90AF
:104AA0000FBE0F901F9018951F920F920FB60F9286
:104AB00011240BB60F922F933F934F935F936F93F5
:104AC0007F938F939F93AF93BF93EF93FF938091C7
:104AD000300182FD07C08091360160E176E00E94DE
:104AE0007C2202C080913601FF91EF91BF91AF917E
:104AF0009F918F917F916F915F914F913F912F91F6
:104B00000F900BBE0F900FBE0F901F9018951F9225
:104B10000F920FB60F9211240BB60F922F933F9363
:104B20004F935F936F937F938F939F93AF93BF93B5
:104B3000EF93FF938091D00082FD07C08091D60053
:104B400068E976E00E947C2202C08091D600FF9145
:104B5000EF91BF91AF919F918F917F916F915F91F5
:104B60004F913F912F910F900BBE0F900FBE0F9062
:104B70001F9018951F920F920FB60F9211240BB62B
:104B80000F922F933F934F935F936F937F938F93E6
:104B90009F93AF93BF93EF93FF938091C80082FDE3
:104BA00007C08091CE0060E277E00E947C2202C0C4
:104BB0008091CE00FF91EF91BF91AF919F918F9126
:104BC0007F916F915F914F913F912F910F900BBE0D
:104BD0000F900FBE0F901F9018951F920F920FB657
:104BE0000F9211240BB60F922F933F934F935F9325
:104BF0006F937F938F939F93AF93BF93EF93FF93A5
:104C00008091C00082FD07C08091C60068EA77E00D
:104C10000E947C2202C08091C600FF91EF91BF915B
:104C2000AF919F918F917F916F915F914F913F9144
:104C30002F910F900BBE0F900FBE0F901F901895E5
:104C40000F931F93CF93DF93EC01E881F9810190DB
:104C5000F081E02D6DE019958C01E881F9810190DA
:104C6000F081E02D6AE0CE011995800F911FDF9150
:104C7000CF911F910F9108956115710579F0FB0196
:104C800001900020E9F73197AF01461B570BDC017B
:104C9000ED91FC910280F381E02D199480E090E089
:104CA0000895863308F0865390917B00282F287052
:104CB000977F922B90937B008770806480937C0019
:104CC00080917A00806480937A0080917A0086FDDA
:104CD000FCCF809178002091790090E0922B08958C
:104CE00090E0FC013197E131F10508F04AC08827D6
:104CF000EE58FF4F8F4F0C94E439809180008F77EE
:104D000003C0809180008F7D80938000089584B5DA
:104D10008F7702C084B58F7D84BD08958091B000E7
:104D20008F7703C08091B0008F7D8093B00008958D
:104D3000809190008F7707C0809190008F7D03C095
:104D400080919000877F8093900008958091A000CB
:104D50008F7707C08091A0008F7D03C08091A00055
:104D6000877F8093A0000895809120018F7707C0EE
:104D7000809120018F7D03C080912001877F8093E7
:104D8000200108951F93CF93DF93282F30E0F9017E
:104D9000E65BF64F8491F901EC5FF64FD491F9018F
:104DA000E254F74FC491CC23C1F0162F81110E9419
:104DB0007026EC2FF0E0EE0FFF1FE657F74FA5919E
:104DC000B4919FB7F894111104C08C91D095D82359
:104DD00002C0EC91DE2BDC939FBFDF91CF911F913E
:104DE0000895CF93DF9390E0FC01EC5FF64F2491A0
:104DF000FC01E254F74F8491882361F190E0880F21
:104E0000991FFC01E059F74FC591D491FC01E65779
:104E1000F74FA591B491611109C09FB7F8948881AB
:104E2000209582238883EC912E230BC0623061F49D
:104E30009FB7F8948881322F309583238883EC9133
:104E40002E2B2C939FBF06C08FB7F894E8812E2B92
:104E500028838FBFDF91CF910895CF92DF92EF9299
:104E6000FF92CF93DF936B017C010E94BE22EB0186
:104E7000C114D104E104F10479F00E94BE226C1B3C
:104E80007D0B683E7340A0F381E0C81AD108E108A9
:104E9000F108C851DC4FECCFDF91CF91FF90EF903C
:104EA000DF90CF9008952FB7F894609170037091C0
:104EB000710380917203909173032FBF08952F9215
:104EC0003F924F925F926F927F928F929F92AF929A
:104ED000BF92CF92DF92EF92FF920F931F93CF93E7
:104EE000DF93CDB7DEB7C959D1090FB6F894DEBF4D
:104EF0000FBECDBF2C014B01CE56DF4F59834883E7
:104F0000C259D0403901C257DF4F19830883CE58A8
:104F1000D0402DB73EB7CA56DF4F39832883C659D4
:104F2000D040E7961FAE1EAEE79788EE93E0A0E074
:104F3000B0E0EB968CAF9DAFAEAFBFAFEB9783E722
:104F400092E0E5969FAF8EAFE597C457DF4F198289
:104F50001882CC58D040C158DF4F1882CF57D0406C
:104F60008E01025E1F4F6DEA75E0C8010E9448176E
:104F70001C821B8283E892E09A8389831E82CE0181
:104F800001965C01302E212E80E0C82E82E0D82EC2
:104F90006FE270E0C6010E94CA39009709F443C06D
:104FA000F60120812F3221F4FFEFCF1ADF0AF0CF74
:104FB0008C198D3008F08CE0082F10E0A801B601A4
:104FC000CE01885A9F4F0E94D539E8E5F0E0EC0FFA
:104FD000FD1FE00FF11F1082C5010E943214F50180
:104FE0008581882351F01EAE1DAE83E892E09CAF10
:104FF0008BAF21961FAE219725C0AE01485A5F4F57
:10500000632D722DC5010E944C34882361F3C00EBC
:10501000D11E832D922D0E943214C1013A2C2B2CCB
:10502000A92EB82EB5CF960120503240C057DF4F81
:1050300039832883C059D040632D722DCE01CB9681
:105040000E944817C057DF4F08811981C059D040CE
:1050500000501E4FF801808181110AC0BE01655CBD
:105060007F4FCE0101960E9448174AE353E04AC0A1
:1050700019A218A283E892E09F8F8E8F1BA221961F
:105080008FAD219781111CC06C961FAE1EAE6C9720
:1050900088EE93E0A0E0B0E0A0968CAF9DAFAEAFFD
:1050A000BFAFA09783E792E06A969FAF8EAF6A97F3
:1050B000E3961FAE1EAEE397A5961FAEA5972AC036
:1050C0008250A801823048F46DEA75E0CE014E9618
:1050D0000E944C3481110EC0D7CFBE01655C7F4F5A
:1050E000CE014E960E944C34882371F2CE01CB96AD
:1050F0000E943214BE01625E7F4FCE0101960E9473
:105100004817A801BE016F5F7F4FCE01885A9F4F9D
:105110000E945C336C968EAD9FAD6C97E7969FAF07
:105120008EAFE797A0968CAD9DADAEADBFADA0970D
:10513000EB968CAF9DAFAEAFBFAFEB97A4968CADA7
:105140009DADAEADBFADA497EF968CAF9DAFAEAFAA
:10515000BFAFEF97A8E5B0E0AC0FBD1F1C96E3E72B
:10516000F0E0EC0FFD1F3C9683E790E08C0F9D1F55
:1051700049962D912193E817F907D9F7E396EEADFB
:10518000FFADE397C457DF4FF983E883CC58D04095
:10519000309719F08581811116C06CE373E08CEEB5
:1051A00097E00E943C2660E072E08CEE97E00E945F
:1051B0003C2667E28CEE97E00E94E3218CEE97E0BC
:1051C0000E942026F6C1C257DF4FC880D980CE5832
:1051D000D040CC0CDD1CA12CB12C9701260D371D25
:1051E000CC56DF4F39832883C459D0401201412C5B
:1051F000512CCE56DF4F88819981C259D0400197FA
:10520000C257DF4FE881F981CE58D040E80FF91F2F
:10521000C856DF4FF983E883C859D040CC56DF4FDA
:1052200028813981C459D0406216730609F4B2C18D
:10523000EDB6FEB68DB79EB78C199D090FB6F894E2
:105240009EBF0FBE8DBFEDB7FEB73196C057DF4F83
:10525000F983E883C059D040A0913202B091330263
:10526000A50194010E94EC39AB01BC01420D531D14
:10527000641D751D440F551F661F771FC457DF4FF0
:1052800008811981CC58D0400115110571F0C80171
:105290000E949612A601C057DF4F68817981C059DC
:1052A000D040C8010E942D1302C080E090E0C816D3
:1052B000D906C9F06DE473E08CEE97E00E943C26BD
:1052C0008CEE97E00E9420260115110531F0C801EF
:1052D0000E943214C8010E9434390FB6F894FEBE01
:1052E0000FBEEDBE66C18301C856DF4F28813981EC
:1052F000C859D040A301CE56DF4F68817981C25989
:10530000D0408EE098E00E94531AC057DF4FE881EA
:10531000F981C059D040DF0180E090E0C257DF4FF3
:1053200028813981CE58D0402817390751F02D9166
:105330003C9111973227232732272D933D930196D5
:10534000EDCF80913808909139088B988A982091F8
:105350000201277820930201A5982EB1277C2EB94F
:1053600060910201292F3327A9014370552775E069
:10537000440F551F7A95E1F7462B409302016EB119
:10538000A9014C705527440F551F440F551F462B3C
:105390004EB964B3A90140715527440F551F462BE0
:1053A00044BB6EB1A9014072552755954795559557
:1053B0004795462B4EB940910201207C332703E0EC
:1053C000359527950A95E1F7242B209302018998BA
:1053D000899A20910201277820930201A5982EB185
:1053E000277C2EB9409102019C012370332755E0A0
:1053F000220F331F5A95E1F7242B209302014EB15F
:105400009C012C703327220F331F220F331F242BB4
:105410002EB944B39C0120713327220F331F242B54
:1054200024BB4EB19C0120723327359527953595C5
:105430002795242B2EB920910201807C9927B3E077
:1054400095958795BA95E1F7822B8093020189980B
:10545000899A8A9AC257DF4F28813981CE58D04025
:10546000121613060CF087C08191919140910201B0
:10547000477840930201A5984EB1477C4EB9A09160
:105480000201492F5527BA0163707727B5E0660FEF
:10549000771FBA95E1F76A2B60930201AEB1BA01AA
:1054A0006C707727660F771F660F771F6A2B6EB9B0
:1054B000A4B3BA0160717727660F771F6A2B64BBAC
:1054C000AEB1BA0160727727759567957595679546
:1054D0006A2B6EB960910201407C552713E0559507
:1054E00047951A95E1F7462B409302018998899ACE
:1054F00040910201477840930201A5984EB1477C44
:105500004EB960910201AC014370552705E0440F8C
:10551000551F0A95E1F7462B409302016EB1AC018D
:105520004C705527440F551F440F551F462B4EB93D
:1055300064B3AC0140715527440F551F462B44BB43
:105540006EB1AC01407255275595479555954795D5
:10555000462B4EB940910201807C992713E0959526
:1055600087951A95E1F7842B809302018998899A8F
:105570002150310975CF8B9A0FB6F894FEBE0FBE3D
:10558000EDBE3FEF631A730A8FEF881A980AA80AD4
:10559000B80A44CEC457DF4F08811981CC58D04097
:1055A0000115110531F0C8010E943214C8010E9492
:1055B0003439CA56DF4FE881F981C659D0400FB659
:1055C000F894FEBF0FBEEDBFC756DF4F0FB6F8947D
:1055D000DEBF0FBECDBFDF91CF911F910F91FF9026
:1055E000EF90DF90CF90BF90AF909F908F907F9083
:1055F0006F905F904F903F902F900895CF93DF93DF
:10560000EFE7F9E08491E9E3F9E0D491E3EFF8E022
:10561000C491CC2391F081110E947026EC2FF0E010
:10562000EE0FFF1FEC55F74FA591B491EC91ED23D0
:1056300081E090E021F480E002C080E090E0DF9122
:10564000CF9108958F929F92AF92BF92CF92DF92A7
:10565000EF92FF92CF93DF93C82F82E895E090936B
:105660007B0380937A03CC2369F1C53010F080E08E
:105670000CC140E060E070E0CB010E94EF31882374
:10568000B1F320E1C29FC00111248E589C4FFC0150
:10569000E254FE4F20812F7751F73C964081518193
:1056A00062817381443651056105710500F33497B9
:1056B000C080D180E280F380C114D104E104F10400
:1056C00021F4D5CFC12CD12C760140E0C701B60121
:1056D0000E94EF31882359F280918D0390918E03BF
:1056E0008115924021F6A0919203AA2309F4BFCF1D
:1056F00060919003709191036115710509F4B7CF22
:1057000020918F03222309F4B2CFA093A105209307
:10571000930580E030E041E050E0C82FFA01082E08
:1057200002C0EE0FFF1F0A94E2F72E173F0739F071
:105730008F5FC83091F789E080939C0598CF809364
:105740009C0520919803309199032115310519F09A
:1057500040E050E008C02091A6033091A70340919B
:10576000A8035091A9032093940530939505409385
:1057700096055093970546015701860E971EA11C6A
:10578000B11C8092A2059092A305A092A405B092AC
:10579000A505E0919303F0919403F093A805E0939D
:1057A000A705B0E00E94EC39860E971EA81EB91E10
:1057B0008092A9059092AA05A092AB05B092AC0583
:1057C00085E0EE0FFF1F8A95E1F7E150FE4FEF2FC6
:1057D000FF27E6958E0E9F1EA11CB11C80929D0591
:1057E00090929E05A0929F05B092A00520919503EE
:1057F000309196032115310521F0A90160E070E098
:1058000008C04091A2035091A3036091A40370913A
:10581000A503D701C60188199909AA09BB09840FF4
:10582000951FA61FB71F04C0B695A7959795879596
:10583000CA95D2F78093980590939905A0939A05FD
:10584000B0939B05853F2FE09207A105B10510F4A9
:105850008CE018C0853F9F4FA105B10510F480E191
:1058600011C08091AE039091AF03A091B003B091AD
:10587000B1038093A9059093AA05A093AB05B093BB
:10588000AC0580E28093A60581E0DF91CF91FF9087
:10589000EF90DF90CF90BF90AF909F908F90089542
:1058A00081E080937903E1E0F1E080818867808383
:1058B0009D9A8DB188638DB9809A819A829A839AD4
:1058C000849A8B9A889A899A8C9A62E370E080E035
:1058D00090E00E942D278C9864E670E080E090E0D4
:1058E0000E942D278C9A64E670E080E090E00E9490
:1058F0002D2760E070E080EB90E00C946019089533
:105900000F931F93CF93DF93EB010E9453278B01DB
:105910000E9446128F3F49F00E945327601B710B73
:105920006C177D07A8F380E001C081E0DF91CF9183
:105930001F910F9108950F931F93CF93DF93EC0165
:10594000162F80917903811102C00E94502C8B98F0
:105950008A9880910201877880930201A5988EB180
:10596000877C8EB9409102018D2F99279C0123706D
:10597000332755E0220F331F5A95E1F7242B20934C
:1059800002014EB19C012C703327220F331F220FCE
:10599000331F242B2EB944B39C0120713327220FCF
:1059A000331F242B24BB4EB19C0120723327359525
:1059B000279535952795242B2EB920910201807CBF
:1059C0009927F3E095958795FA95E1F7822B8093D7
:1059D00002018998899A8091020187788093020157
:1059E000A5988EB1877C8EB920910201CE0183707B
:1059F0009927A5E0880F991FAA95E1F7822B80933C
:105A000002012EB1CE018C709927880F991F880F43
:105A1000991F822B8EB924B3CE0180719927880FEC
:105A2000991F822B84BB2EB1CE0180729927959548
:105A3000879595958795822B8EB980910201C07CC0
:105A4000DD2743E0D595C7954A95E1F7C82BC0936C
:105A500002018998899A8A9A8091010187788093B6
:105A600001019D988DB1877C8DB961E070E080E087
:105A700090E00E942D27889A88988898889860914D
:105A800000018CB1A2B34CB100910001889A889AB0
:105A9000889888988898E0910001FCB132B32CB1C5
:105AA000C0910001889A115017FFE5CF889A8B9A10
:105AB000909101019867909301019D9A9DB198631F
:105AC0009DB9487050E0440F551F440F551F087191
:105AD00098E0099F80011124402B512BA072B0E067
